:020000040800F2
:1000000068090020C9010008090200080B02000865
:100010000F02000813020008170200080000000089
:100020000000000000000000000000001B020008AB
:100030001D020008000000001F0200082102000845
:10004000E3010008E3010008E3010008E301000800
:10005000E3010008E3010008E3010008E3010008F0
:10006000E3010008E3010008E3010008E3010008E0
:10007000E3010008E3010008E30100082D2E000859
:1000800089300008E3010008E3010008E3010008EB
:10009000E3010008E3010008E3010008E3010008B0
:1000A000E3010008E3010008E3010008E3010008A0
:1000B000E7280008F9240008D72B0008E30100080E
:1000C000E3010008E3010008E3010008E301000880
:1000D000E3010008E3010008E3010008E301000870
:1000E000E3010008E3010008E301000800F002F862
:1000F00000F05AF80AA090E8000C82448344AAF168
:100100000107DA4501D100F04FF8AFF2090EBAE865
:100110000F0013F0010F18BFFB1A43F0010318473B
:10012000D83E0000F83E00000A444FF0000C10F8E2
:10013000013B13F0070408BF10F8014B1D1108BF65
:1001400010F8015B641E05D010F8016B641E01F805
:10015000016BF9D113F0080F1EBF10F8014BAD1C55
:100160000C1B09D16D1E58BF01F801CBFAD505E073
:1001700014F8016B01F8016B6D1EF9D59142D6D3CD
:10018000704700000023002400250026103A28BFF5
:1001900078C1FBD8520728BF30C148BF0B607047F9
:1001A0001FB51FBD10B510BD03F0AEFB1146FFF724
:1001B000F7FF03F02BFB03F0CCFB03B4FFF7F2FFD8
:1001C00003BC03F0D1FB0000094880470948004701
:1001D000FEE7FEE7FEE7FEE7FEE7FEE7FEE7FEE7F7
:1001E000FEE7FEE704480549054A064B7047000054
:1001F00003030008ED0000086803002068090020E0
:100200006805002068050020704700BFFEE700BFBA
:10021000FEE700BFFEE700BFFEE77047704770478C
:10022000704700000CB50020019000906C480068F9
:1002300040F480306A49086000BF6948006800F4F3
:10024000003000900198401C0190009818B9019866
:10025000B0F5A06FF1D16248006800F4003010B131
:100260000120009001E0002000900098012843D177
:100270005C48006840F010005A4908600846006871
:1002800020F0030008600846006840F002000860A3
:1002900053484068524948600846406848600846EC
:1002A000406840F4806048600846406820F47C1054
:1002B00048600846406840F4E81048600846006816
:1002C00040F08070086000BF4548006800F0007092
:1002D0000028F9D04248406820F0030040494860B7
:1002E0000846406840F00200486000BF3C48406853
:1002F00000F00C000828F9D10CBD10B5FFF792FFF3
:1003000010BD10B53648006840F00100344908605F
:10031000084640683449084031494860084600684A
:10032000324908402E4908600846006820F48020C1
:1003300008600846406820F4FE0048604FF41F0043
:100340008860FFF7DAFF4FF000602949086010BDB0
:1003500010B5002100200022214B5B6803F00C0146
:1003600021B1042906D0082928D107E0214B224CCD
:10037000236027E01F4B204C236023E0184B5B6871
:1003800003F47010164B5B6803F48032022303EB16
:10039000904022B9194B4343174C23600DE0104B9A
:1003A0005B6803F4003323B1144B4343124C2360C6
:1003B00003E0104B4343104C236003E00D4B0E4C05
:1003C000236000BF00BF064B5B68C3F303130C4CF4
:1003D000E15C094B1B68CB40074C236010BD00005B
:1003E00000100240002002400000FFF8FFFFF6FE70
:1003F00008ED00E000127A000000002000093D0036
:100400000400002010B56FF0040000F0B4F82E488E
:1004100000682E49B0FBF1F02D49087008460078BD
:1004200000EB4001C1EBC0104FF6FF7101EAC000C4
:100430002849088010BD0146254A12784A434FF0EA
:10044000E0235A6100229A611A46126942F00102C1
:100450001A6100BF4FF0E022106900F001021AB1EA
:1004600000F48032002AF5D04FF0E022126922F029
:1004700001024FF0E0231A6100229A6170470146A1
:10048000144A12884A434FF0E0235A6100229A61CD
:100490001A46126942F001021A6100BF4FF0E022D1
:1004A000106900F001021AB100F48032002AF5D080
:1004B0004FF0E022126922F001024FF0E0231A61AE
:1004C00000229A61704700000000002000127A00AC
:1004D000140000201600002031490143314A116008
:1004E000704770B5002100230F22C47804B32D4C4F
:1004F000246804F4E064C4F5E064210AC1F1040353
:10050000CA40447804FA03F1847814402143090175
:10051000254C0678A155047804F01F050124AC4051
:1005200005786D11AD0005F1E025C5F8004109E041
:10053000047804F01F050124AC401C4D06787611A8
:1005400045F8264070BD1A4A0A400243154B1B1F4E
:100550001A60704739B1134A121D12680243114BD9
:100560001B1D1A6006E00F4A121D126882430D4BD4
:100570001B1D1A607047042808D14FF0E02109695B
:1005800041F004014FF0E022116107E04FF0E0215B
:10059000096921F004014FF0E02211617047000069
:1005A0000000FA050CED00E000E400E080E100E06E
:1005B00080FFFF1F10B50446CC48844208D10121BA
:1005C000042000F02DFB0021042000F029FB46E070
:1005D000C748844208D10121082000F021FB0021F6
:1005E000082000F01DFB3AE0C248844208D10121F6
:1005F000102000F015FB0021102000F011FB2EE070
:10060000BD48844208D10121202000F009FB0021CF
:10061000202000F005FB22E0B848844208D10121E7
:10062000402000F0FDFA0021402000F0F9FA16E029
:10063000B348844208D10121802000F0F1FA002162
:10064000802000F0EDFA0AE0AE48844207D1012193
:10065000801500F0E5FA0021A01500F0E1FA10BDC8
:1006600010B50121084600F0DBFA0021012000F05E
:10067000D7FA10BD2DE9F0410246002500260020E2
:1006800000230024002791F803C00CF00F0591F817
:1006900003C00CF0100CBCF1000F03D091F802C0A5
:1006A0004CEA050591F800C0BCF1000F31D0146888
:1006B00000202BE04FF0010C0CFA00F3B1F800C061
:1006C0000CEA03069E4220D183004FF00F0C0CFA77
:1006D00003F7BC4305FA03FC4CEA040491F803C099
:1006E000BCF1280F06D14FF0010C0CFA00FCC2F847
:1006F00014C00AE091F803C0BCF1480F05D14FF0D7
:10070000010C0CFA00FCC2F810C0401C0828D1D320
:100710001460B1F800C0BCF1FF0F34DD5468002054
:100720002EE000F1080C4FF0010808FA0CF3B1F8C4
:1007300000C00CEA03069E4221D183004FF00F0C4B
:100740000CFA03F7BC4305FA03FC4CEA040491F8E5
:1007500003C0BCF1280F05D100F1080C08FA0CF811
:10076000C2F8148091F803C0BCF1480F07D100F122
:10077000080C4FF0010808FA0CF8C2F81080401C71
:100780000828CED35460BDE8F0814FF6FF71018098
:10079000022181700421C1707047024600209368D5
:1007A0000B400BB1012000E0002070470146886833
:1007B00080B2704702460020D3680B400BB1012085
:1007C00000E0002070470146C86880B270470161B0
:1007D0007047416170470AB1016100E041617047B3
:1007E000C16070474FF480320A4382618161826147
:1007F00082698269704702460020434B18684FF6B1
:100800008073184040EA021008433F4B186070475D
:100810003E49C8617047F0B50A4600230024002114
:10082000002500F00046B6F1004F02D1364EF169C6
:1008300001E0354E7168C0F3034583B200F4401601
:10084000B6F5401F08D121F070612F4E766826F072
:1008500070662D4F7E6012E000F48016B6F5801FA2
:1008600006D1032606FA05F4A14341F0706106E0C3
:10087000460D360103FA06F6B14341F0706122B12C
:10088000460D360103FA06F6314300F00046B6F194
:10089000004F02D11C4EF16101E01B4E7160F0BDB2
:1008A00030B500228B071C0F0F2303FA04F2164BFE
:1008B00008338C1053F824309343134C08348D10B4
:1008C00044F8253023468C1053F824308C07240F2D
:1008D00000FA04F423430C4C08348D1044F82530FE
:1008E00030BD0A49DC310860704700000008014053
:1008F000000C0140001001400014014000180140AC
:10090000001C014000200140000001400000204286
:10091000DF48006840F00100DD4908600846406893
:10092000DC490840DA49486008460068DA4908406E
:10093000D74908600846006820F48020086008460F
:10094000406820F4FE0048604FF41F008860704744
:10095000CF49096821F48031CD4A116011460968F8
:1009600021F480211160B0F5803F03D0B0F5802FD5
:100970000ED106E0C649096841F48031C44A1160CD
:1009800007E0C349096841F4A021C14A116000E0B1
:1009900000BF00BF704710B50146002200230020B1
:1009A0004A11012A02D1BA4C236806E0022A02D178
:1009B000B74C236A01E0B64C636A01F01F020124C0
:1009C00094401C400CB1012000E0002010BD38B55F
:1009D000002000900024002500BF3120FFF7DBFF3E
:1009E00005460098401C00900098B0F5A06F01D01B
:1009F000002DF2D03120FFF7CEFF08B1012400E036
:100A00000024204638BD01460020A14A106820F08D
:100A1000F80040EAC10010607047A04908607047C4
:100A2000024600209A4B586820F47C1042EA0103E9
:100A30001843974B586070479849086670470146BD
:100A40000020934A506820F003000843506070472C
:100A50008F48406800F00C007047014600208C4A27
:100A6000506820F0F00008435060704701460020B5
:100A7000874A506820F4E0600843506070470146A0
:100A80000020834A506820F4605040EAC100506062
:100A9000704729B17E4A527A02437D4B5A7204E074
:100AA0007B4A527A82437A4B5A7270477B49D831DB
:100AB0000860704701460020754A506820F44040A5
:100AC0000843506070470021714A20321170704A0B
:100AD00082F82010012802D004280AD104E0012164
:100AE0006B4A2032117005E00521694A20321170ED
:100AF00000E000BF00BF7047694908607047644963
:100B0000096A0143624A11627047654944390860C5
:100B1000704730B500210022002400235C4D6D6831
:100B200005F00C0121B1042905D0082923D105E0E5
:100B30005C4D056022E05B4D05601FE0544D6D6823
:100B400005F47012524D6D6805F48034022505EBF2
:100B500092421CB9544D554305600BE04C4D6D68F5
:100B600005F400351DB1504D5543056002E04D4D73
:100B70005543056002E04B4D056000BF00BF444D8A
:100B80006D6805F0F0010909484D6B5C0568DD40B2
:100B900045603F4D6D6805F4E061090A434D6B5CAB
:100BA0004568DD4085603A4D6D6805F46051C90ABD
:100BB0003E4D6B5C4568DD40C560354D6D6805F4A4
:100BC0004041890B3A4D6B5CC568B5FBF3F5056197
:100BD00030BD29B12E4A526902432D4B5A6104E0BF
:100BE0002B4A526982432A4B5A61704729B1284ADD
:100BF00092690243264B9A6104E0254A9269824336
:100C0000234B9A61704729B1214AD2690243204B94
:100C1000DA6104E01E4AD26982431D4BDA617047F3
:100C200029B11B4AD2680243194BDA6004E0184A22
:100C3000D2688243164BDA60704729B1144A1269B0
:100C40000243134B1A6104E0114A12698243104BAC
:100C50001A61704712494039086070470F49C864EB
:100C600070470B49C87170470948406A40F080706E
:100C700007494862704701460020054A92680A40C9
:100C80000AB1012000E000207047014988727047D6
:100C9000001002400000FFF8FFFFF6FE0000424295
:100CA0008004424200127A0000093D001800002032
:100CB0002800002010B50446FE48844208D10121D6
:100CC000C014FFF7ADFF0021E014FFF7A9FFC4E057
:100CD000B4F1804F08D101210846FFF7AEFF002193
:100CE0000120FFF7AAFFB8E0F348844208D10121B0
:100CF0000220FFF7A2FF00210220FFF79EFFACE0D9
:100D0000EE48844208D101210420FFF796FF00211C
:100D10000420FFF792FFA0E0E948844208D10121B6
:100D20000820FFF78AFF00210820FFF786FF94E0E4
:100D3000E448844208D101211020FFF77EFF002102
:100D40001020FFF77AFF88E0DF48844208D10121B4
:100D50002020FFF772FF00212020FFF76EFF7CE0CC
:100D6000DA48844208D101214014FFF759FF0021DD
:100D70006014FFF755FF70E0D548844209D1012186
:100D8000C804FFF74DFF00214FF40020FFF748FF94
:100D900063E0D048844209D101210805FFF740FFF4
:100DA00000214FF48010FFF73BFF56E0CA48844211
:100DB00009D101214805FFF733FF00214FF400104E
:100DC000FFF72EFF49E0C548844208D101214020A9
:100DD000FFF733FF00214020FFF72FFF3DE0C04821
:100DE000844208D101218020FFF727FF00218020C5
:100DF000FFF723FF31E0BB48844208D10121801571
:100E0000FFF71BFF0021A015FFF717FF25E0B648ED
:100E1000844209D101210804FFF702FF00214FF4A9
:100E20008030FFF7FDFE18E0B048844209D101216F
:100E30004804FFF7F5FE00214FF40030FFF7F0FE05
:100E40000BE0AB48844208D101218804FFF7E8FE9B
:100E500000214FF48020FFF7E3FE10BD002202883E
:100E6000944B98420ED0994B98420BD0B0F1804FE2
:100E700008D0914B984205D0904B984202D0904BAD
:100E8000984204D14FF68F731A404B881A438D4B0A
:100E9000984207D08C4B984204D04FF6FF431A403B
:100EA000CB881A4302808B8883850B880385814B0E
:100EB00098420BD0854B984208D08B4B984205D076
:100EC0008A4B984202D08A4B984201D10B7A038612
:100ED00001238382704770B5002400220023058C13
:100EE0004FF6FE7635400584028C8388048B4FF6DE
:100EF0008F752C40B51E2C400D882C43751E2A4042
:100F00000D892A434D882A436A4DA8420BD06F4D64
:100F1000A84208D0744DA84205D0744DA84202D012
:100F2000734DA84213D14FF6F7752A404D892A43D5
:100F30004FF6FB752A408D882A434FF6FF652B40FC
:100F40004FF6FF552B408D892B43CD892B43838052
:100F50000483CD888586028470BD70B5002400228C
:100F60000023058C4FF6EF7635400584028C83888C
:100F7000048B48F6FF752C404FF6FF452C400D883A
:100F80004FF6FF7606EA05252C434FF6DF752A401B
:100F90000D8906EA05152A434D8806EA05152A43F8
:100FA000444DA84202D0494DA8421DD14FF67F754D
:100FB0002A404D894FF6FF7606EA05152A434FF67B
:100FC000BF752A408D8806EA05152A434FF6FF357E
:100FD0002B404FF2FF752B408D8906EA85052B4388
:100FE000CD8906EA85052B4383800483CD88058758
:100FF000028470BD70B5002400220023058C4FF6DA
:10100000FF6635400584028C8388848B4FF68F758C
:101010002C404FF6FC752C400D882C434FF6FF55A5
:101020002A400D894FF6FF7606EA05252A434D88AA
:1010300006EA05252A431F4DA84202D0234DA842A7
:101040001DD14FF2FF752A404D894FF6FF7606EA13
:1010500005252A434FF6FF352A408D8806EA0525E7
:101060002A434EF6FF752B404DF6FF752B408D89B8
:1010700006EA05152B43CD8906EA05152B43838027
:101080008483CD888587028470BD70B500220023DB
:101090000024058C4EF6FF7635400584038C848849
:1010A000828B48F6FF752A404FF6FF452A400D888F
:1010B00020E00000002C0140000400400008004037
:1010C000000C0040001000400014004000340140BB
:1010D000004C014000500140005401400018004005
:1010E000001C00400020004000400140004401403E
:1010F000004801404FF6FF7606EA05252A434DF6E3
:10110000FF752B400D8906EA05352B434D8806EA0D
:1011100005352B43FA4DA84202D0FA4DA84208D11A
:101120004BF6FF752C408D894FF6FF7606EA851544
:101130002C4384808283CD88A0F84050038470BD06
:10114000828B4FF2FF331A408283828B4FF6FF73FC
:1011500003EA01231A4382837047F0B50C46154613
:10116000002200210026078C4EF6FF7C07EA0C07C0
:101170000784828B018C4FF6FF7707EA043640F62E
:10118000FF473A404FF6FF7707EA05273A434FF605
:10119000FF7707EA03373A43D94FB8420ED0D94F09
:1011A000B8420BD0B0F1804F08D0D74FB84205D02D
:1011B000D64FB84202D0D64FB84206D14DF6FF778F
:1011C000394046F48057394305E047F6FF57394028
:1011D00044F48057394382830184F0BD828B4FF6FB
:1011E000F3731A408283828B0A4382837047F0B57F
:1011F0000C461546002200210026078C4FF6FF6C96
:1012000007EA0C070784828B018C4FF6FF7707EA09
:1012100004264FF60C773A404FF6FF7707EA03179C
:101220002F433A43B64FB8420ED0B64FB8420BD018
:10123000B0F1804F08D0B44FB84205D0B34FB84298
:1012400002D0B34FB84206D14FF6FF57394046F4AB
:101250008077394305E04FF2FF57394044F48077F7
:10126000394382830184F0BD028B4FF2FF331A4071
:101270000283028B4FF6FF7303EA01231A430283B2
:101280007047F0B50C461546002200210026078C59
:101290004FF6EF7C07EA0C070784028B018C4FF6B0
:1012A000FF7707EA041640F6FF473A404FF6FF770C
:1012B00007EA03373A434FF6FF7707EA05273A4331
:1012C0008F4FB8420ED08F4FB8420BD0B0F1804F45
:1012D00008D08D4FB84205D08C4FB84202D08C4F09
:1012E000B84206D14FF6DF77394046F01007394350
:1012F00005E04FF65F77394044F010073943028329
:101300000184F0BD028B4FF6F3731A400283028B07
:101310000A4302837047F0B50C46154600220021AF
:10132000068C4FF6FE773E400684028B018C4FF60A
:101330000C7632407E1C06EA03162E433243704E72
:10134000B0420ED06F4EB0420BD0B0F1804F08D0FB
:101350006D4EB04205D06D4EB04202D06C4EB042E0
:1013600006D14FF6FD76314044F00106314305E0E9
:101370004FF6F576314044F0010631430283018493
:10138000F0BD70B505460C465D4885420ED05D48FF
:1013900085420BD0B5F1804F08D05B48854205D01F
:1013A0005A48854202D05A48854200D100E000BF29
:1013B000208850B92389A28861882846FFF7ABFFAF
:1013C000E1882846FFF79EFF25E0208804280AD1FF
:1013D0002389A28861882846FFF753FFE1882846C1
:1013E000FFF742FF17E0208808280AD12389A28846
:1013F00061882846FFF7FBFEE1882846FFF7EEFEEE
:1014000009E02389A28861882846FFF7A6FEE188C3
:101410002846FFF795FE70BD2DE9F04105460C46C4
:1014200000260127608808B9022600E00026A0886F
:10143000012801D1022700E001272088A0B92389D3
:10144000A28861882846FFF766FFE1882846FFF7F3
:1014500059FF23893A4631462846FFF712FFE188B3
:101460002846FFF701FF13E02389A28861882846F8
:10147000FFF707FFE1882846FFF7F6FE23893A4683
:1014800031462846FFF747FFE1882846FFF73AFF35
:10149000BDE8F0810A884B881A438B881A43CB88B1
:1014A0001A430B891A434B891A438B891A43A0F8B4
:1014B000442070474FF6FF71818000210180C18078
:1014C0004180017270470021018041808180C1808C
:1014D000018141818181C18170470021018041806A
:1014E000012181800021C18001817047002101809C
:1014F00041808180C18001814181818170470000EC
:10150000002C01400034014000040040000800406D
:10151000000C004021B1028842F00102028004E088
:1015200002884FF6FE731A400280704731B1B0F85E
:10153000442042F40042A0F8442005E0B0F84420E2
:10154000C2F30E02A0F8442070471AB183890B43FE
:10155000838102E083898B43838170478182704756
:1015600041EA0203A0F8483070471AB183890B435F
:10157000838102E083898B438381704701894FF621
:10158000F8721140018170470A46002101894FF627
:101590008F73194011430181704730B504460D46E1
:1015A00029462046FFF7F0FF208940F00700208100
:1015B00030BD2DE9F04104460D4616461F46602D0C
:1015C00006D13B46012231462046FFF75AFE05E090
:1015D0003B46012231462046FFF79DFE2946204624
:1015E000FFF7D2FF208940F007002081BDE8F0819D
:1015F00030B50C4600210189C9B24FF6FF7505EAE6
:101600000325154325432943018130BD2DE9F041D0
:1016100005460E4617469846002443463A4631464C
:101620002846FFF7E5FF2C894FF6F870044044F098
:1016300007044FF68F70044044F070042C81BDE81D
:10164000F081F0B504460D4616461F463B4632462D
:1016500029462046FFF7CCFF208940F480402081B6
:10166000F0BD0185828270470A46002101884FF64D
:101670008F731940114301807047F0B50C46154631
:101680001E460021002200230189028B038C4FF6A5
:10169000F877394021434FF6FC473A4040F20117B2
:1016A0003A434FF6DD773B404FF6FF7707EA0617E0
:1016B0002F433B43018102830384F0BD0A4600218E
:1016C000018B4FF68F7319401143018370470A460F
:1016D0000021018B48F6FF7319404FF6FF7303EAB0
:1016E00002231943018370470A460021818B4FF67C
:1016F0008F7319401143818370470A460021818B03
:1017000048F6FF7319404FF6FF7303EA02231943AB
:101710008183704721B1028842F08002028004E098
:1017200002884FF67F731A400280704721B1828889
:1017300042F00402828004E082884FF6FB731A4074
:101740008280704721B1828842F00802828004E0E2
:1017500082884FF6F7731A408280704721B18288E1
:1017600042F00102828004E082884FF6FE731A4044
:10177000828070470A460021018B4FF6F7731940AB
:101780001143018370470A460021018B4FF2FF731A
:1017900019404FF6FF7303EA022319430183704790
:1017A0000A460021818B4FF6F7731940114381835C
:1017B00070470A460021818B4FF2FF7319404FF6A4
:1017C000FF7303EA02231943818370470A4600210D
:1017D000018B4FF6FB7319401143018370470A4692
:1017E0000021018B4FF6FF3319404FF6FF7303EAD8
:1017F00002231943018370470A460021818B4FF66B
:10180000FB7319401143818370470A460021818B85
:101810004FF6FF3319404FF6FF7303EA02231943D3
:10182000818370470A460021018B4FF67F73194070
:101830001143018370470A460021018BC1F30E0159
:101840004FF6FF7303EA02231943018370470A46E8
:101850000021818B4FF67F731940114381837047BC
:101860000A460021818BC1F30E014FF6FF7303EA94
:1018700002231943818370470A460021018C4FF6E9
:10188000FD7319401143018470470A460021018C01
:101890004FF6F77319401143018470470A4600213F
:1018A000018C4FF6DF7319404FF6FF7303EA021302
:1018B0001943018470470A460021018C4FF67F735B
:1018C00019404FF6FF7303EA02131943018470476E
:1018D0000A460021018C4FF6FF5319404FF6FF7363
:1018E00003EA02231943018470470A460021018C50
:1018F0004FF2FF7319404FF6FF7303EA02231943B7
:10190000018470470A460021018C4DF6FF7319408F
:101910004FF6FF7303EA023319430184704730B571
:10192000002301248C40A3B2048C9C430484048CC7
:1019300002FA01F5ADB22C43048430BD30B500236A
:1019400004248C40A3B2048C9C430484048C02FACB
:1019500001F5ADB22C43048430BD70B503460020C0
:1019600000241846183001258D40ACB21D8CA543CB
:101970001D8409B1082909D100EB6100056825F033
:10198000700505600568154305600EE00D1FC5F381
:101990004E052844056825F4E045056005684FF6C6
:1019A000FF7606EA02263543056070BD21B1028844
:1019B00042F00202028004E002884FF6FD731A40F2
:1019C0000280704721B1028842F00402028004E0E4
:1019D00002884FF6FB731A400280704721B182885B
:1019E00042F08002828004E082884FF67F731A40C2
:1019F0008280704702884FF6F7731A40028002888F
:101A00000A430280704782884FF68F731A408280A3
:101A100082880A438280704702894FF6F8731A4021
:101A2000028102890A430281704702894FF67F735F
:101A30001A40028102890A430281704781847047FB
:101A4000818570478186704701877047818770471D
:101A5000A0F84010704702884FF6FF431A400280FA
:101A600002880A43028070470146888E704701460B
:101A7000088F70470146888F70470146B1F84000D3
:101A800070470146888C70470146088D70470246B2
:101A90000020138A0B400BB1012000E000207047AA
:101AA000CA430282704730B502460020002300245A
:101AB000158A05EA0103958905EA010413B10CB101
:101AC000012000E0002030BDCA43028270470000C0
:101AD00010B50446FB48844209D101218803FFF771
:101AE0009FF800214FF48040FFF79AF832E0F64863
:101AF000844209D101214804FFF79FF800214FF4E7
:101B00000030FFF79AF825E0F048844209D101211E
:101B10008804FFF792F800214FF48020FFF78DF83A
:101B200018E0EB48844209D10121C804FFF785F889
:101B300000214FF40020FFF780F80BE0E5488442D5
:101B400008D101210805FFF778F800214FF4801033
:101B5000FFF773F810BD2DE9F04786B005460E4635
:101B60000024A24600BFA1460027B08900B100BFF3
:101B70002F462C8A4CF6FF700440F08804432C82D8
:101B8000AC894EF6F3100440B0883189084371895E
:101B900008430443AC81AC8A4FF6FF400440B0894F
:101BA0000443AC8201A8FEF7B4FFC648874202D1C5
:101BB000DDF810A001E0DDF80CA0A88900F40040D9
:101BC00040B10AEBCA0000EB0A1031684900B0FBD3
:101BD000F1F807E00AEBCA0000EB0A10316889004F
:101BE000B0FBF1F86420B8FBF0F004012009642197
:101BF00001FB1089A88900F4004040B1322000EBBD
:101C0000C900B0FBF1F000F00700044308E0322007
:101C100000EB09106421B0FBF1F000F00F00044369
:101C20002C8106B0BDE8F0874FF416510160002109
:101C30008180C18001810C21418100218181704717
:101C400010B502460020108A4FF2FF0318400B889F
:101C50004C8823438C882343CC8823431843108229
:101C600010BD0021018041808180C180704721B179
:101C7000828942F40052828104E082894DF6FF732A
:101C80001A4082817047F0B50346002400260025E3
:101C9000002040F66A17B94200D100BF1846C1F3D0
:101CA000421401F01F06012707FA06F5012C01D1A5
:101CB0000C3004E0022C01D1103000E014301AB1D5
:101CC00007682F43076002E00768AF430760F0BD75
:101CD0001AB1838A0B43838202E0838A8B43838217
:101CE0007047028A4FF6F0731A400282028A0A4352
:101CF0000282704782894FF2FF731A408281828983
:101D00000A438281704721B1828942F002028281B6
:101D100004E082894FF6FD731A4082817047028A7F
:101D20004FF6DF731A400282028A0A43028270472A
:101D300021B1028A42F48042028204E0028A4BF618
:101D4000FF731A4002827047C1F308028280704715
:101D500001468888C0F308007047818941F001017D
:101D600081817047028BD2B20283028B42EA012248
:101D700002837047028B02F47F420283028B0A4384
:101D80000283704721B1828A42F02002828204E0FD
:101D9000828A4FF6DF731A408282704721B1828AAD
:101DA00042F01002828204E0828A4FF6EF731A40FA
:101DB0008282704721B1828A42F00802828204E066
:101DC000828A4FF6F7731A408282704721B1828966
:101DD00042F40042828103E08289C2F30E028281D2
:101DE000704721B1828A42F40062828204E0828AD2
:101DF0004FF2FF731A4082827047828A4FF6FB735C
:101E00001A408282828A0A438282704721B1828A82
:101E100042F00202828204E0828A4FF6FD731A4089
:101E20008282704702460020B1F5007F00D100BFDA
:101E300013880B400BB1012000E00020704701F433
:101E40000072B2F5007F00D100BFCA430280704724
:101E500070B50246002400230025002040F66A16D3
:101E6000B14200D100BFC1F3421501F01F030126AA
:101E700006FA03F3012D02D19689334006E0022DC4
:101E800002D1168A334001E0968A33400C120126B3
:101E900006FA04F41688344013B10CB1012000E0B6
:101EA000002070BD10B50022002340F66A14A14244
:101EB00000D100BF0A1201249440A3B2DC43048085
:101EC00010BD0000003801400044004000480040C0
:101ED000004C00400050004001684FF6FE72114077
:101EE00001600021016041608160C1608D498842CC
:101EF00008D18C490839496841F00F01894A083AEC
:101F000051608AE087491431884208D185490839EF
:101F1000496841F0F001834A083A51607DE0814907
:101F20002831884208D17F490839496841F47061F5
:101F30007C4A083A516070E07A493C31884208D1C5
:101F400078490839496841F47041764A083A516045
:101F500063E074495031884208D1724908394968B0
:101F600041F470216F4A083A516056E06D4964317E
:101F7000884208D16B490839496841F47001694ABF
:101F8000083A516049E067497831884208D165498B
:101F90000839496841F07061624A083A51603CE092
:101FA0006149884206D1011F096841F00F01021FF3
:101FB000116032E05C491431884208D15A49091F46
:101FC000096841F0F001584A121F116025E0564996
:101FD0002831884208D15449091F096841F47061C9
:101FE000514A121F116018E04F493C31884208D114
:101FF0004D49091F096841F470414B4A121F116095
:102000000BE049495031884207D14749091F096807
:1020100041F47021444A121F1160704710B500222C
:10202000026847F6F0739A430C6A8B6823430C6985
:1020300023434C6923438C692343CC6923434C6A73
:1020400023438C6A23431A430260CB6843600B68C6
:1020500083604B68C36010BD0021016041608160F6
:10206000C160016141618161C1610162416281625E
:10207000704721B1026842F00102026004E0026888
:102080004FF6FE731A40026070471AB103680B43A3
:10209000036002E003688B43036070474160704750
:1020A0000146486880B2704701460020002201F0D6
:1020B00080531BB11C4B083B1A6802E0194B083BCC
:1020C0001A6802EA01030BB1012000E0002070470A
:1020D00000F0805119B11449091F086002E011494C
:1020E00008394860704701460020002201F0805303
:1020F0001BB10D4B083B1A6802E00A4B083B1A68FB
:1021000002EA01030BB1012000E00020704700F05B
:10211000805119B10449091F086002E001490839DA
:1021200048607047080002400804024010B54FF4B0
:10213000A060FEF7D1F901F095F8FEF763F94721A9
:102140004FF6FF7000F02CFB47214FF6FF7000F0B8
:1021500039F944F62060FEF792F944F62060FEF764
:102160008EF944F62060FEF78AF900F0CBFE00F00D
:1021700005FD002143F63F0000F002F810BD00000D
:1021800030B589B005460C460121C802FEF72EFD88
:1021900001210520FEF72AFD4FF48070ADF82000E4
:1021A00018208DF8230003208DF8220008A981480B
:1021B000FEF760FA4FF40070ADF8200018208DF89B
:1021C000230003208DF8220008A97A48FEF752FA6E
:1021D0004FF48060ADF8200018208DF82300032014
:1021E0008DF8220008A97348FEF744FA4FF4006006
:1021F000ADF8200018208DF8230003208DF8220070
:1022000008A96C48FEF736FAADF81850ADF814403E
:102210000020ADF81A00ADF8160005A96648FEF7D3
:102220001DFE6020ADF804000120ADF8060000207E
:10223000ADF80A00ADF80C0001A95F48FEF74BFEAF
:1022400001A95D48FEF789FE01A95B48FEF7D2FEB1
:1022500001A95948FEF719FF01215748FFF766F910
:1022600008215548FFF786FA08215348FFF78BFAF3
:1022700008215148FFF794FA08214F48FFF799FACF
:1022800001214D48FFF746FA01214B48FFF742F97B
:1022900009B030BD10B5044614BB10214548FEF707
:1022A00096FA4FF400414548FEF793FA4FF4804107
:1022B0004248FEF78CFA4FF400514048FEF789FA85
:1022C00004213F48FEF783FA20213A48FEF781FABD
:1022D00010213B48FEF77BFA20213948FEF779FAB6
:1022E000012C1FD110213348FEF773FAE103334864
:1022F000FEF76DFAA1033148FEF76BFA61032F4830
:10230000FEF765FA04212E48FEF763FA20212948DA
:10231000FEF75DFA10212A48FEF75BFA20212848D3
:10232000FEF755FA022C1FD110212248FEF751FA70
:10233000A1032248FEF74BFA61032048FEF747FA53
:1023400021031E48FEF745FA04211D48FEF73FFA17
:1023500020211848FEF73DFA10211948FEF739FAF6
:1023600020211748FEF733FA032C22D110211148FF
:10237000FEF72DFA4FF400411048FEF72AFA4FF409
:1023800080410E48FEF725FA4FF400510B48FEF746
:102390001EFA04210A48FEF71CFA20210548FEF720
:1023A00016FA10210648FEF712FA20210448FEF71B
:1023B00010FA10BD00080140002C0140001001403F
:1023C000000C014030B589B005460C4601210220C1
:1023D000FEF719FC01210D20FEF708FCC020ADF826
:1023E000200028208DF8230008A9E548FEF742F9CF
:1023F000C021E348FEF7EDF90320ADF820002820C6
:102400008DF8230008A9DF48FEF734F90321DD48E1
:10241000FEF7DFF9ADF81850ADF814400020ADF824
:102420001A00ADF8160005A9D748FEF717FD0020E1
:10243000ADF80400ADF806000120ADF8080000205A
:10244000ADF80A000F20ADF80C0001A9CE48FEF748
:1024500098FF0420ADF804000020ADF8060001202C
:10246000ADF808000020ADF80A000F20ADF80C0010
:1024700001A9C548FEF785FF0820ADF8040000203B
:10248000ADF806000120ADF808000020ADF80A0004
:102490000F20ADF80C0001A9BB48FEF772FF0C201D
:1024A000ADF804000020ADF806000120ADF80800EA
:1024B0000020ADF80A000F20ADF80C0001A9B248C9
:1024C000FEF75FFF1D208DF8100001208DF8110030
:1024D00000208DF8120001208DF8130004A8FEF7EB
:1024E00000F801221E21A848FFF72FF80121A64875
:1024F000FFF710F809B030BD10B50221A248FFF770
:10250000D2FA002845D0A148007840B901209F495F
:1025100008709D48FFF7A8FA9C49488039E09B481D
:102520000078012835D10020984908709648FFF7B7
:102530009BFA96498880084640888988884207DA4D
:102540009248808891494988401A9049088113E04F
:102550008E4840888D49898888420ADD8B484088AA
:102560004FF6FF71081A894989880844874908810C
:1025700002E001208549088184480089844991FB53
:10258000F0F08249C8800846C088642801DA00203B
:10259000C88004217C48FFF786FA002845D07D4892
:1025A000007840B901207B4908707748FFF75FFA4F
:1025B0007849488039E077480078012835D10020F3
:1025C000744908707048FFF752FA724988800846CB
:1025D00040888988884207DA6E4880886D49498832
:1025E000401A6C49088113E06A4840886949898823
:1025F00088420ADD674840884FF6FF71081A65492E
:10260000898808446349088102E001206149088102
:10261000604800895E4991FBF0F05E49C880084639
:10262000C088642801DA0020C88008215648FFF7D6
:102630003AFA002845D05848007840B90120564958
:1026400008705148FFF716FA5349488039E052485C
:102650000078012835D100204F4908704A48FFF71B
:1026600009FA4D498880084640888988884207DAF7
:102670004948808848494988401A4749088113E0F9
:10268000454840884449898888420ADD4248408854
:102690004FF6FF71081A4049898808443E4908816D
:1026A00002E001203C4908813B480089384991FB00
:1026B000F0F03949C8800846C088642801DA002053
:1026C000C88010213048FFF7EEF9A8B333480078EE
:1026D00040B90120314908702B48FFF7CEF92F4946
:1026E00048803AE02D480078012836D100202B4957
:1026F00008702548FFF7C1F92849888008464088B6
:102700008988884207DA2548808824494988401A00
:102710002249088114E0214840882049898888425C
:102720000BDD1E4840884FF6FF71081A1B49898847
:1027300008441A49088103E00FE001201749088185
:1027400016480089124991FBF0F01449C8800846E8
:10275000C088642801DA0020C8801E210A48FFF7DB
:10276000B3F910BD0146B1F5FA7F02DD4FF4FA70FE
:102770007047322901DA0020FAE70846F8E700003E
:1027800000080140000C01400004004070020020DD
:1027900040420F007A020020840200208E020020B6
:1027A00030B589B005460C4601210846FEF72BFAE4
:1027B00001210D20FEF71AFA0121E848FEF72BF857
:1027C0000320ADF8200028208DF8230008A9E44854
:1027D000FDF750FF0321E248FDF7FBFF4FF4406097
:1027E000ADF8200028208DF8230008A9DD48FDF76A
:1027F00041FF4FF44061DB48FDF7EBFFADF81850A7
:10280000ADF814400020ADF81A00ADF8160005A987
:102810004FF08040FEF722FB0020ADF80400ADF839
:1028200006000120ADF808000020ADF80A000F20D6
:10283000ADF80C0001A94FF08040FEF7A2FD042086
:10284000ADF804000020ADF806000120ADF8080046
:102850000020ADF80A000F20ADF80C0001A94FF0E0
:102860008040FEF78EFD0820ADF804000020ADF892
:1028700006000120ADF808000020ADF80A000F2086
:10288000ADF80C0001A94FF08040FEF77AFD0C2056
:10289000ADF804000020ADF806000120ADF80800F6
:1028A0000020ADF80A000F20ADF80C0001A94FF090
:1028B0008040FEF766FD1C208DF8100001208DF889
:1028C00011008DF812008DF8130004A8FDF709FE21
:1028D00001221E219007FEF738FE01218807FEF72E
:1028E00019FE09B030BD10B502214807FFF7DBF82B
:1028F000002846D09C48007840B901209A490870C9
:102900008007FFF7B1F8984948803AE09648007888
:10291000012836D10020944908704FF08040FFF71D
:10292000A3F891498880084640888988884207DA58
:102930008D4880888C494988401A8B49088113E06A
:10294000894840888849898888420ADD86484088C5
:102950004FF6FF71081A8449898808448249088122
:1029600002E00120804908817F4800897F4991FB6E
:10297000F0F07D49C8800846C088642801DA00204C
:10298000C88004210807FFF78EF8002846D0784851
:10299000007840B90120764908708007FFF767F892
:1029A000734948803AE072480078012836D1002007
:1029B0006F4908704FF08040FFF759F86C498880E4
:1029C000084640888988884207DA694880886849CB
:1029D0004988401A6649088113E06548408864497F
:1029E000898888420ADD624840884FF6FF71081ADC
:1029F0005F49898808445E49088102E001205C49FA
:102A000008815B480089594991FBF0F05849C8801A
:102A10000846C088642801DA0020C8800821C8065A
:102A2000FFF741F8002846D05248007840B901200D
:102A3000504908708007FFF71DF84E4948803AE07A
:102A40004C480078012836D100204A4908704FF0E0
:102A50008040FFF70FF847498880084640888988FA
:102A6000884207DA4348808842494988401A4149E8
:102A7000088113E03F4840883E49898888420ADD42
:102A80003C4840884FF6FF71081A3A498988084443
:102A90003849088102E0012036490881354800891B
:102AA000324991FBF0F03349C8800846C088642859
:102AB00001DA0020C88010218806FEF7F4FFB0B3C9
:102AC0002D48007840B901202B4908708007FEF797
:102AD000D4FF294948803BE027480078012837D1B6
:102AE0000020254908704FF08040FEF7C6FF2249BC
:102AF0008880084640888988884207DA1E4880888E
:102B00001D494988401A1C49088114E01A48408828
:102B10001949898888420BDD174840884FF6FF71B4
:102B2000081A1549898808441349088103E00FE011
:102B3000012011490881104800890C4991FBF0F0EF
:102B40000D49C8800846C088642801DA0020C88082
:102B50001E214FF08040FEF7B7FF10BD00021800A5
:102B600000080140000C01409802002040420F0084
:102B7000A2020020AC020020B60200201FB50121F5
:102B80000420FEF740F84720ADF8080040F2E73097
:102B9000ADF804000020ADF80A00ADF8060001A968
:102BA0001648FEF75BF9012211461448FEF7CDFCEA
:102BB0001E208DF8000000208DF801008DF8020025
:102BC00001208DF803006846FDF78BFC01210B48BE
:102BD000FEF7A0FC1FBD10B501210848FEF763FFFA
:102BE00050B101210548FEF76FFF00F069FD044870
:102BF0000068401C0249086010BD00000008004049
:102C00002C00002000B591B001210420FDF7EEFF5B
:102C100001218803FDF7EAFF01210846FDF7D9FFEE
:102C2000AB48FEF755FF4FF48060ADF8400004203C
:102C30008DF8430010A9A748FDF71CFD0CA8FEF76E
:102C4000F3FF4FF4E1300C900020ADF83400ADF804
:102C50003600ADF838000420ADF83A000020ADF899
:102C60003C000CA99A48FEF776FF012240219848C3
:102C7000FFF72EF89848FFF72FF99548001D0090B0
:102C800096480190002002900D20039000200490AF
:102C900080200590002006900790202008904FF497
:102CA0004050099000200A9069468B48FFF7B6F91A
:102CB0000F208DF82C0001208DF82D0000208DF8BC
:102CC0002E0001208DF82F000BA8FDF70AFC012132
:102CD0008148FFF7CEF9012202217F48FFF7D5F99D
:102CE00001217B48FEF7C3FF11B000BD02460AB9BF
:102CF00008B27047012A02D1484200B2F9E7002029
:102D0000F7E770B504467648B0F9000075490880C9
:102D1000734804800146B1F90010724AB2F90020EC
:102D2000881A00F095FF20F000456F49284600F012
:102D3000BBFF03D26B48B0F9000070BD6848B0F922
:102D40000000FAE770B50024022003E06749095C3F
:102D50000C44401C0A28F9DB6448807AE1B28842BE
:102D600063D162488078C009614908715F48C078C2
:102D70005E49897801F07F0140EA01205C490880C2
:102D80000A4611881079FFF7B1FF0546FFF7B9FF32
:102D90005749488055480079C00956490871534839
:102DA00040795249097901F07F0140EA01205149F7
:102DB00008800A4611881079FFF798FF0546FFF74B
:102DC000A0FF4C49488049488079C0094A490871A8
:102DD0004648C0794549897901F07F0140EA0120E0
:102DE000454908800A4611881079FFF77FFF05469C
:102DF000FFF787FF404948803C48007AC0093F49B7
:102E000008713A48407A3949097A01F07F0140EA6D
:102E100001203A4908800A4611881079FFF766FFB9
:102E20000546FFF76EFF3549488070BD10B54FF479
:102E30000030FFF758F9002849D04FF40030FFF771
:102E400047F94FF40030FFF762F9244800785A2818
:102E50000BD122484078A52807D10D221F492348CD
:102E600000F0D8FCFFF76EFF31E000242448007B1F
:102E70005A2805D119480078A52801D10C2410E062
:102E800000200BE01E49095C5A2906D11C4A411C4E
:102E9000515CA52901D1044602E0401C0D28F1DB5C
:102EA00000BFC4F10D0216480119104800F0B2FC31
:102EB0000E490D31081B2246084900F0ABFC0D22DB
:102EC00006490F4800F0A6FCFFF73CFF00BF10BD0D
:102ED000003801400008014058000240C0020020B4
:102EE0004A000020480000200080BB44CD020020A2
:102EF00030000020360000203C000020420000206E
:102F0000DA02002000B591B001210420FDF76EFE29
:102F100001214804FDF777FE01210846FDF759FE1F
:102F2000C348FEF7D5FD0820ADF8400004208DF819
:102F3000430010A9BF48FDF79DFB0CA8FEF774FEE7
:102F40004FF4E1300C900020ADF83400ADF83600BD
:102F5000ADF838000420ADF83A000020ADF83C0090
:102F60000CA9B348FEF7F7FD01224021B048FEF757
:102F7000AFFEB148FEF7B0FFAD48001D0090AF486E
:102F800001900020029005200390002004908020F2
:102F90000590002006900790202008904FF44050A4
:102FA000099000200A906946A348FFF737F81020DF
:102FB0008DF82C0000208DF82D0001208DF82E00BA
:102FC0008DF82F000BA8FDF78CFA01219A48FFF726
:102FD00050F8012202219848FFF757F80121944840
:102FE000FEF745FE11B000BD95498978954A1170EC
:102FF0009349C978918092490979D180114689888D
:10300000503991601146C9883C39D1600020114681
:1030100009788C2903DC11460978282917DA8949AF
:103020004969491C874A5161114609788C2909DD93
:103030001146B1F91010B42904DA114609785A3949
:10304000C8B21EE07F4909785A31C8B219E07D49FB
:103050000978462915DD7B4909786E2911DA794905
:103060004969322907D97749097E491C754A117681
:103070000121754A11700021724A51611146097887
:10308000917070494870704710B54FF40010FFF709
:103090002AF800284BD04FF40010FFF719F84FF42E
:1030A0000010FFF734F8654800785A280CD16348BF
:1030B0004078A52808D1624860490A680260097909
:1030C0000171FFF791FF32E00024604800795A282F
:1030D00005D15A480078A52801D1042410E0002029
:1030E0000BE05A49095C5A2906D1584A411C515CE7
:1030F000A52901D1044602E0401C0528F1DB00BFF0
:10310000C4F10502514801194D4800F083FB4C49B8
:10311000491D081B2246494900F07CFB4B484749A2
:103120000A68026009790171FFF75EFF00BF10BDF8
:1031300070B504464648B0F9000046490880444846
:1031400004800146B1F90010424AB2F90020881A01
:1031500000F07EFD20F000453F49284600F0A4FD28
:1031600003D23C48B0F9000070BD3948B0F9000006
:10317000FAE72DE9F04106460C463848A060384889
:10318000E0600020C4F88C00D4E90001401E8142B8
:1031900007DA6168481C606004F1140040F821609F
:1031A00006E004F11400616840F8216000206060CE
:1031B000002524E004F1140252F82500A16800F073
:1031C00073FE04D204F1140050F82500A06004F14D
:1031D000140252F82500E16800F066FD04D204F103
:1031E000140050F82500E06004F1140252F8251094
:1031F000D4F88C0000F0C0FBC4F88C006D1C206873
:10320000A842D7DC2168881E00F022FD0746A1688D
:10321000D4F88C0000F07AFE8046E16800F076FE7B
:103220000546394600F016FC20612069BDE8F081B2
:1032300000440040000801406C0002404C000020A7
:1032400051000020E80200206A0200205600002001
:103250007E0100207C0100200000204200C079C4D3
:1032600000C0794408B501211C20FDF7BFFC4FF4D4
:103270009270ADF8000010208DF8030003208DF847
:10328000020069468048FDF7F5F94FF492717E48D7
:10329000FDF79FFA3020ADF8000010208DF80300F4
:1032A00003208DF8020069467848FDF7E3F93021E4
:1032B0007648FDF78EFA4FF46040ADF8000010201C
:1032C0008DF8030003208DF8020069467048FDF771
:1032D000D1F94FF460416E48FDF77BFA08BD00203C
:1032E0006C49086001206C49C1F8BC0100206B49A1
:1032F00008600120091F08606949086000206549CD
:10330000091D0860012066491831086000206549E0
:10331000C1F89401704700205E4908605E49C1F819
:10332000BC015F4908605B49091D08605B49086092
:10333000091F08605A49183108605A49C1F89401B8
:10334000704701205349086000205349C1F8BC016F
:103350000120524908600020091F08605049086098
:1033600001204C49091D086000204D4918310860B2
:1033700001204C49C1F8940170470120454908607B
:1033800000204549C1F8BC0170470020444908604D
:1033900001204549C1F89401704701203F49086068
:1033A00000203D49C1F8B401704700203C49183164
:1033B000086001203B49C1F894017047002035495D
:1033C000086001203449C1F8BC017047012034492C
:1033D000086000203449C1F89401704700202F494B
:1033E000086001202C49C1F8B401704701202C4924
:1033F0001831086000202B49C1F894017047002063
:10340000244908602449C1F8BC01704700202349C1
:1034100008602149C1F8B4017047002020490860C4
:103420002149C1F89401704700201D4918310860F6
:103430001C49C1F89401704700B5FFF7CFFFFFF7B3
:10344000C5FFFFF79AFFFFF7B0FF00BD00B5FFF71C
:10345000B5FFFFF7CBFFFFF7A0FFFFF796FF00BD1B
:1034600000B5FFF79AFFFFF7B1FFFFF79EFFFFF7E9
:10347000A5FF00BD00B5FFF788FFFFF7AFFFFFF71F
:103480007CFFFFF7B3FF00BD000C014000080140C6
:10349000001001409001214200002242B801224266
:1034A0008881214200802142000021422DE9FE4F07
:1034B00006460D4614462068029060680190A06898
:1034C0000090304600F0DCFB07465E4900F0ECFC63
:1034D00001D244F62066284600F0D2FB07465A493E
:1034E00000F0E2FC01D243F63F052069E060A81B32
:1034F00000F0AEFB20612169606900F03DFA606177
:103500006069504900F0D0FC01D24E4860616069AA
:103510004E4900F0C9FB01D24A486061E168206968
:1035200000F0F4FCA061A069009900F0F1FB814675
:103530006069019900F0ECFB82462069029900F075
:10354000E7FB8346514600F017FA8046494600F0F3
:1035500013FA074600F05CFBA083A08B00F090FB01
:103560000746394900F0A0FC02D243F63F00A08391
:10357000BDE8FE8F2DE9F05F05460E461446606AF1
:1035800000F066FB0746294600F08EFB03D2606A16
:1035900000F05EFB0546206A00F05AFB074629460C
:1035A00000F082FC03D2206A00F052FB054620693D
:1035B000E0603146284600F0A9FC2061216960697D
:1035C00000F0DAF96061E168206900F09FFCA06119
:1035D00060691F4900F068FC01D21D4860616069A4
:1035E0001C4900F061FB01D21A486061A168A06922
:1035F00000F08EFB81466168606900F089FB8246BD
:103600002168206900F084FB8346514600F0B4F93C
:103610008046494600F0B0F9074600F0DDFAE06167
:10362000E069E16A884201DDE06AE061E069A16A7F
:10363000884201DAA06AE061E06900F009FBBDE8B8
:10364000F09F000000409C4600FC604600409CC685
:103650000000C8430000C8C32DE9F04104460F46EE
:1036600015461E465649C888564A2146FFF71EFF92
:103670005549C888554A3946FFF718FF5449C88844
:10368000544A2946FFF712FF5349C888534A314626
:10369000FFF70CFF4B48818B5148FEF7D7F94B4899
:1036A000818B4F48FEF7D4F94A48818B4C48FEF78E
:1036B000C9F94A48818B4A48FEF7C6F9BDE8F0814E
:1036C00070B54848007830B94748006847490860F5
:1036D0000120444908704448008844490988401A38
:1036E000434908804348007E06285FDA4248007854
:1036F00000285BD141480078C0BB3F480078A8BB98
:1037000008460088B0F5FA7F31DA3A49487800F087
:10371000B7FA04463A4A21463A48FFF72BFFFFF72B
:10372000DEFD394CA48B6442354DAD8B641B04F532
:10373000C874A3B2344CA48B314DAD8B2C4404F52A
:10374000C874A2B2304CA48B64422D4DAD8B2C4476
:1037500004F5C874A1B22C4CA48B294DAD8B641B0D
:1037600004F5C874A0B2FFF777FF27E0FFE723480E
:10377000007888B92048007870B91D480088B0F5F5
:10378000FA7F09DDFFF7ABFDC8231A4619464FF44F
:103790009670FFF761FF11E01848007801280DD1FD
:1037A0000020164908700F49087007E0FFF7B3FDC5
:1037B00000231A4619461846FFF74EFF70BD000059
:1037C0009802002080010020AC0200209E01002011
:1037D00084020020BC01002070020020DA010020D9
:1037E000002C0140680200202C0000206402002010
:1037F00060020020E8020020690200206A02002026
:10380000F80100200000B44228020020FEF78EFCE0
:1038100000BFFEE7032A40F2308010F0030C00F0F6
:10382000158011F8013BBCF1020F624498BF11F8FA
:1038300001CB00F8013B38BF11F8013BA2F10402B3
:1038400098BF00F801CB38BF00F8013B11F003032B
:1038500000F02880083AC0F0088051F8043B083A8C
:1038600051F804CBA0E80810F5E7121D5CBF51F831
:10387000043B40F8043BAFF30080D20724BF11F8AB
:10388000013B11F801CB48BF11F8012B24BF00F810
:10389000013B00F801CB48BF00F8012B704770478F
:1038A0007047704710B5203AC0F00B80B1E818504F
:1038B000203AA0E81850B1E81850A0E81850BFF41A
:1038C000F5AF5FEA027C24BFB1E81850A0E81850B9
:1038D00044BF18C918C0BDE810405FEA827C24BF0D
:1038E00051F8043B40F8043B08BF7047D20728BF9B
:1038F00031F8023B48BF11F8012B28BF20F8023BEA
:1039000048BF00F8012B7047754600F029F8AE4615
:1039100005006946534620F00700854618B020B5DB
:10392000FCF760FCBDE820404FF000064FF00007B8
:103930004FF000084FF0000B21F00701AC46ACE857
:10394000C009ACE8C009ACE8C009ACE8C0098D46C4
:1039500070470446AFF300802046FCF72EFC0000C1
:10396000004870470403002001491820ABBEFEE761
:10397000260002007047000090EA010F48BF81F066
:10398000004100F1CA82421A3CBF801A89184FEAEE
:10399000D0524FF07F4C1CEA410FA2EBD15318BF1D
:1039A0009CEA026F00F03B804FF0004C4CEA002094
:1039B0004CEA012121FA03FC10EB0C0C1ED202F19F
:1039C000FF325FEA1C2040EBC25038BF70471CF04A
:1039D0007F0F4FEA400C18BFBCF17F4F38BF7047D4
:1039E000C3F12003994008BF20F00100BCF17F4FD4
:1039F00038BF7047A0F1C04000F051BA4FEA3C0018
:103A0000000A40EBC25028BF1CF0FF0F4FEA400CE9
:103A1000E6D018BFBCF17F4F38BF7047EAE79CEA99
:103A2000026F05D010EA5C0F08BF00F0004070473D
:103A300010B500F0EEF900BF64FBBE3E401058BF69
:103A4000C0F14040491058BFC1F140418142EFF3FD
:103A5000008070474FF47F0C1CEAD0121EBF1CEA96
:103A6000D11392EA0C0F93EA0C0F00F0858090EAD4
:103A7000010F48BF42F4807240F4000C41F4000092
:103A80002CF07F4120F07F4000B58142A2EB030281
:103A90000FF2081CACEB504EC0F100009EF800E0A5
:103AA0004FEA4E0E00FB0EFC38BF49004FEA2C1CBB
:103AB00002F5FA020CFB0EF34FEACE1E4FEA112C70
:103AC0004FEAC1210EEB635E42EB22420EFB0CFC7F
:103AD0004FEA1C5300FB03114FEA112C4FEA01314E
:103AE0000EFB0CFC4FEADC4C00FB0C11C14228BF62
:103AF00009184CEB03335DF804EB10EB410143EB89
:103B0000C250B2F57C0F38BF704729D512F0F00FC4
:103B10001CBF00F1C04000F000407047008182836C
:103B20008485868788898B8C8D8E8F9192939596CC
:103B300097999A9C9D9FA0A2A3A5A7A8AAACAEB056
:103B4000B2B3B5B7B9BCBEC0C2C5C7C9CCCED1D45B
:103B5000D7D9DCDFE2E6E9ECF0F3F7FAFE0000008B
:103B60004FEA400C0CF1807CBCF17E4F28BF7047BF
:103B7000B0F1C04000F093B990EA010F0CEAD11304
:103B800048BF42F48072624538BF634507D213F4E0
:103B90007F0F16D080EA010000F00040704710B59A
:103BA00000F037F9097EFC3E00F005B880EA01001C
:103BB00000F00040704780EA010000F0004000F093
:103BC0006EB912F47F0F04BF0248704780EA01000B
:103BD00000F065B90000C07F41000B0ED3F19E02DA
:103BE00008D950F400034FEA032323FA02F048BF38
:103BF0004042704710B500F00CF900BF4992248094
:103C0000002070476FF0004282EA200070470000F9
:103C1000C10DD1F19E0206DB4FEA002343F00043C1
:103C200023FA02F07047004207D54FEA4001B1F194
:103C3000FE4F02D24FF00000704710B500F0E9F8D7
:103C400049922480002070476FEA200070470000EE
:103C500010F0004148BF4042B0FA80F310FA03F27E
:103C6000C3F19D030BD051EAC35101EB122053065F
:103C700038BF704700F1010008BF20F00100704715
:103C8000B0FA80F310FA03F2C3F19D030AD0D9050C
:103C900001EB1220530638BF704700F1010008BF46
:103CA00020F001007047000050EA010C00F1138081
:103CB0001CF5000F58BFBCF5000F01D488427047B7
:103CC00007D710F5000F58BF11F5000F15D4884223
:103CD0007047894270471CF5000F04D5BCF5000FF2
:103CE000F7D5814270474FF0807C1CEB400F38BF06
:103CF0001CEB410F01D28142704710B500F089F8EA
:103D0000922449004FF000504FF08051FFF796BECB
:103D10004FF47F0C1CEAD0121EBF1CEAD11392EAAA
:103D20000C0F93EA0C0F00F0478090EA010F48BF98
:103D300042F480724FF0004C4CEA00204CEA012122
:103D400002EB0302A0FB0113A2F50002002918BF39
:103D500043F001035B0028BF4FEA330342EB2242EA
:103D60005FEA132C4CEBC2502EBFBCEB436FB2F595
:103D70007C0F70474FEA036CBCF1004F08BF20F086
:103D80000100B2F57C0F38BF70470BD582F0FF02FF
:103D900012F5803FC8BF704700F1C040D8BF00F0A7
:103DA0000040704700F5000C5FEA4C0C48BF7047BC
:103DB000B0F1C04000F073B890EA010F0CEAD113E3
:103DC00048BF42F48072624538BF634504D280EA3E
:103DD000010000F00040704710B500F01AF800BF75
:103DE0008900013E00F007B800F009B85FEA410C15
:103DF0005FEA1C6C08D080EA010000F050B85FEA6E
:103E0000400C5FEA1C6CF6D14FF00040A0F580003A
:103E100070470EF1020E2EF0030E5EF8044B2442A2
:103E200004D44FEA4102B2F17F4F11D84FEA400368
:103E3000B3F17F4F0CD80ED14FEAD07CB2F17F4F57
:103E40000CEB4C0C0CF1020C08BF4CEBD17C04E0E9
:103E50004FF0080C01E04FEAD17C0CEB4C0324FA44
:103E600003F404F00704B4F1040C06D20EEB840C46
:103E7000BDE810404CF0010C6047DFE80CF007088B
:103E800002024FF00040A0F5800010BD084642003D
:103E900018BFD2F1807288BF00F0004010BDFF2132
:103EA00041EAD050C005704751EA000C00F1138080
:103EB0001CF5000F58BFBCF5000F01D481427047BC
:103EC00007D711F5000F58BF10F5000F15D4814228
:103ED0007047894270471CF5000F04D5BCF5000FF0
:103EE000F7D5884270474FF0807C1CEB410F38BFFC
:103EF0001CEB400F01D28842704780EA010081EA42
:103F0000000180EA0100FFF7F8BE000090EA010F0F
:103F100048BF81F000413FF536AD421A04D882F027
:103F20000042A0EB020011444FEAD0524FF07F4C08
:103F30001CEA410FA2EBD15318BF9CEA026F4AD092
:103F40004FF0004C4CEA00204CEA012121FA03FC1E
:103F5000B0EB0C0C0FD412F0FE0F36D05FEA4C0021
:103F60001DD5001240EBC25038BF70471CF03F0F08
:103F700018BF70470BE0A2F101025FEA1C2040EB82
:103F8000C25038BF70471CF07F0F18BF7047C3F195
:103F90002003994014BF401E20F0010070478008A4
:103FA0004FEA122308BF7047B0FA80FCA2EB0C0264
:103FB000CCF1280C60FA0CF093EA122F04BF00EB4E
:103FC000C25070474FEAC3707047130A5FEADC10B3
:103FD00008BF7047F6E79CEA026F04D010EA5C0F56
:103FE00008BF0020704710B5FFF713FF40DFF63E13
:103FF00081F00040704700001840000800000020D9
:1040000070020000280100086840000870020020CB
:10401000F8060000840100081184A24A04A80901DE
:104020000203040607080910691405300204060893
:10403000028F1E02950A071848429A99193F334485
:104040004209351E091C5A113D3FCDCC4C040118C4
:1040500032B44770FEFFFF90015BA0406C0917303F
:08406000BAA0300116000000B7
:04000005080000ED02
:00000001FF
