:020000040800F2
:1000000060090020C9010008090200080B0200086D
:100010000F02000813020008170200080000000089
:100020000000000000000000000000001B020008AB
:100030001D020008000000001F0200082102000845
:10004000E3010008E3010008E3010008E301000800
:10005000E3010008E3010008E3010008E3010008F0
:10006000E3010008E3010008E3010008E3010008E0
:10007000E3010008E3010008E30100081D2E000869
:1000800053300008E3010008E3010008E301000821
:10009000E3010008E3010008E3010008E3010008B0
:1000A000E3010008E3010008E3010008E3010008A0
:1000B000D7280008E9240008C72B0008E30100083E
:1000C000E3010008E3010008E3010008E301000880
:1000D000E3010008E3010008E3010008E301000870
:1000E000E3010008E3010008E301000800F002F862
:1000F00000F05AF80AA090E8000C82448344AAF168
:100100000107DA4501D100F04FF8AFF2090EBAE865
:100110000F0013F0010F18BFFB1A43F0010318473B
:10012000F43E0000143F00000A444FF0000C10F8A9
:10013000013B13F0070408BF10F8014B1D1108BF65
:1001400010F8015B641E05D010F8016B641E01F805
:10015000016BF9D113F0080F1EBF10F8014BAD1C55
:100160000C1B09D16D1E58BF01F801CBFAD505E073
:1001700014F8016B01F8016B6D1EF9D59142D6D3CD
:10018000704700000023002400250026103A28BFF5
:1001900078C1FBD8520728BF30C148BF0B607047F9
:1001A0001FB51FBD10B510BD03F0BCFB1146FFF716
:1001B000F7FF03F039FB03F0DAFB03B4FFF7F2FFBC
:1001C00003BC03F0DFFB00000948804709480047F3
:1001D000FEE7FEE7FEE7FEE7FEE7FEE7FEE7FEE7F7
:1001E000FEE7FEE704480549054A064B7047000054
:1001F00003030008ED0000086003002060090020F0
:100200006005002060050020704700BFFEE700BFCA
:10021000FEE700BFFEE700BFFEE77047704770478C
:10022000704700000CB50020019000906C480068F9
:1002300040F480306A49086000BF6948006800F4F3
:10024000003000900198401C0190009818B9019866
:10025000B0F5A06FF1D16248006800F4003010B131
:100260000120009001E0002000900098012843D177
:100270005C48006840F010005A4908600846006871
:1002800020F0030008600846006840F002000860A3
:1002900053484068524948600846406848600846EC
:1002A000406840F4806048600846406820F47C1054
:1002B00048600846406840F4E81048600846006816
:1002C00040F08070086000BF4548006800F0007092
:1002D0000028F9D04248406820F0030040494860B7
:1002E0000846406840F00200486000BF3C48406853
:1002F00000F00C000828F9D10CBD10B5FFF792FFF3
:1003000010BD10B53648006840F00100344908605F
:10031000084640683449084031494860084600684A
:10032000324908402E4908600846006820F48020C1
:1003300008600846406820F4FE0048604FF41F0043
:100340008860FFF7DAFF4FF000602949086010BDB0
:1003500010B5002100200022214B5B6803F00C0146
:1003600021B1042906D0082928D107E0214B224CCD
:10037000236027E01F4B204C236023E0184B5B6871
:1003800003F47010164B5B6803F48032022303EB16
:10039000904022B9194B4343174C23600DE0104B9A
:1003A0005B6803F4003323B1144B4343124C2360C6
:1003B00003E0104B4343104C236003E00D4B0E4C05
:1003C000236000BF00BF064B5B68C3F303130C4CF4
:1003D000E15C094B1B68CB40074C236010BD00005B
:1003E00000100240002002400000FFF8FFFFF6FE70
:1003F00008ED00E000127A000000002000093D0036
:100400000400002010B56FF0040000F0B4F82E488E
:1004100000682E49B0FBF1F02D49087008460078BD
:1004200000EB4001C1EBC0104FF6FF7101EAC000C4
:100430002849088010BD0146254A12784A434FF0EA
:10044000E0235A6100229A611A46126942F00102C1
:100450001A6100BF4FF0E022106900F001021AB1EA
:1004600000F48032002AF5D04FF0E022126922F029
:1004700001024FF0E0231A6100229A6170470146A1
:10048000144A12884A434FF0E0235A6100229A61CD
:100490001A46126942F001021A6100BF4FF0E022D1
:1004A000106900F001021AB100F48032002AF5D080
:1004B0004FF0E022126922F001024FF0E0231A61AE
:1004C00000229A61704700000000002000127A00AC
:1004D000140000201600002031490143314A116008
:1004E000704770B5002100230F22C47804B32D4C4F
:1004F000246804F4E064C4F5E064210AC1F1040353
:10050000CA40447804FA03F1847814402143090175
:10051000254C0678A155047804F01F050124AC4051
:1005200005786D11AD0005F1E025C5F8004109E041
:10053000047804F01F050124AC401C4D06787611A8
:1005400045F8264070BD1A4A0A400243154B1B1F4E
:100550001A60704739B1134A121D12680243114BD9
:100560001B1D1A6006E00F4A121D126882430D4BD4
:100570001B1D1A607047042808D14FF0E02109695B
:1005800041F004014FF0E022116107E04FF0E0215B
:10059000096921F004014FF0E02211617047000069
:1005A0000000FA050CED00E000E400E080E100E06E
:1005B00080FFFF1F10B50446CC48844208D10121BA
:1005C000042000F02DFB0021042000F029FB46E070
:1005D000C748844208D10121082000F021FB0021F6
:1005E000082000F01DFB3AE0C248844208D10121F6
:1005F000102000F015FB0021102000F011FB2EE070
:10060000BD48844208D10121202000F009FB0021CF
:10061000202000F005FB22E0B848844208D10121E7
:10062000402000F0FDFA0021402000F0F9FA16E029
:10063000B348844208D10121802000F0F1FA002162
:10064000802000F0EDFA0AE0AE48844207D1012193
:10065000801500F0E5FA0021A01500F0E1FA10BDC8
:1006600010B50121084600F0DBFA0021012000F05E
:10067000D7FA10BD2DE9F0410246002500260020E2
:1006800000230024002791F803C00CF00F0591F817
:1006900003C00CF0100CBCF1000F03D091F802C0A5
:1006A0004CEA050591F800C0BCF1000F31D0146888
:1006B00000202BE04FF0010C0CFA00F3B1F800C061
:1006C0000CEA03069E4220D183004FF00F0C0CFA77
:1006D00003F7BC4305FA03FC4CEA040491F803C099
:1006E000BCF1280F06D14FF0010C0CFA00FCC2F847
:1006F00014C00AE091F803C0BCF1480F05D14FF0D7
:10070000010C0CFA00FCC2F810C0401C0828D1D320
:100710001460B1F800C0BCF1FF0F34DD5468002054
:100720002EE000F1080C4FF0010808FA0CF3B1F8C4
:1007300000C00CEA03069E4221D183004FF00F0C4B
:100740000CFA03F7BC4305FA03FC4CEA040491F8E5
:1007500003C0BCF1280F05D100F1080C08FA0CF811
:10076000C2F8148091F803C0BCF1480F07D100F122
:10077000080C4FF0010808FA0CF8C2F81080401C71
:100780000828CED35460BDE8F0814FF6FF71018098
:10079000022181700421C1707047024600209368D5
:1007A0000B400BB1012000E0002070470146886833
:1007B00080B2704702460020D3680B400BB1012085
:1007C00000E0002070470146C86880B270470161B0
:1007D0007047416170470AB1016100E041617047B3
:1007E000C16070474FF480320A4382618161826147
:1007F00082698269704702460020434B18684FF6B1
:100800008073184040EA021008433F4B186070475D
:100810003E49C8617047F0B50A4600230024002114
:10082000002500F00046B6F1004F02D1364EF169C6
:1008300001E0354E7168C0F3034583B200F4401601
:10084000B6F5401F08D121F070612F4E766826F072
:1008500070662D4F7E6012E000F48016B6F5801FA2
:1008600006D1032606FA05F4A14341F0706106E0C3
:10087000460D360103FA06F6B14341F0706122B12C
:10088000460D360103FA06F6314300F00046B6F194
:10089000004F02D11C4EF16101E01B4E7160F0BDB2
:1008A00030B500228B071C0F0F2303FA04F2164BFE
:1008B00008338C1053F824309343134C08348D10B4
:1008C00044F8253023468C1053F824308C07240F2D
:1008D00000FA04F423430C4C08348D1044F82530FE
:1008E00030BD0A49DC310860704700000008014053
:1008F000000C0140001001400014014000180140AC
:10090000001C014000200140000001400000204286
:10091000DF48006840F00100DD4908600846406893
:10092000DC490840DA49486008460068DA4908406E
:10093000D74908600846006820F48020086008460F
:10094000406820F4FE0048604FF41F008860704744
:10095000CF49096821F48031CD4A116011460968F8
:1009600021F480211160B0F5803F03D0B0F5802FD5
:100970000ED106E0C649096841F48031C44A1160CD
:1009800007E0C349096841F4A021C14A116000E0B1
:1009900000BF00BF704710B50146002200230020B1
:1009A0004A11012A02D1BA4C236806E0022A02D178
:1009B000B74C236A01E0B64C636A01F01F020124C0
:1009C00094401C400CB1012000E0002010BD38B55F
:1009D000002000900024002500BF3120FFF7DBFF3E
:1009E00005460098401C00900098B0F5A06F01D01B
:1009F000002DF2D03120FFF7CEFF08B1012400E036
:100A00000024204638BD01460020A14A106820F08D
:100A1000F80040EAC10010607047A04908607047C4
:100A2000024600209A4B586820F47C1042EA0103E9
:100A30001843974B586070479849086670470146BD
:100A40000020934A506820F003000843506070472C
:100A50008F48406800F00C007047014600208C4A27
:100A6000506820F0F00008435060704701460020B5
:100A7000874A506820F4E0600843506070470146A0
:100A80000020834A506820F4605040EAC100506062
:100A9000704729B17E4A527A02437D4B5A7204E074
:100AA0007B4A527A82437A4B5A7270477B49D831DB
:100AB0000860704701460020754A506820F44040A5
:100AC0000843506070470021714A20321170704A0B
:100AD00082F82010012802D004280AD104E0012164
:100AE0006B4A2032117005E00521694A20321170ED
:100AF00000E000BF00BF7047694908607047644963
:100B0000096A0143624A11627047654944390860C5
:100B1000704730B500210022002400235C4D6D6831
:100B200005F00C0121B1042905D0082923D105E0E5
:100B30005C4D056022E05B4D05601FE0544D6D6823
:100B400005F47012524D6D6805F48034022505EBF2
:100B500092421CB9544D554305600BE04C4D6D68F5
:100B600005F400351DB1504D5543056002E04D4D73
:100B70005543056002E04B4D056000BF00BF444D8A
:100B80006D6805F0F0010909484D6B5C0568DD40B2
:100B900045603F4D6D6805F4E061090A434D6B5CAB
:100BA0004568DD4085603A4D6D6805F46051C90ABD
:100BB0003E4D6B5C4568DD40C560354D6D6805F4A4
:100BC0004041890B3A4D6B5CC568B5FBF3F5056197
:100BD00030BD29B12E4A526902432D4B5A6104E0BF
:100BE0002B4A526982432A4B5A61704729B1284ADD
:100BF00092690243264B9A6104E0254A9269824336
:100C0000234B9A61704729B1214AD2690243204B94
:100C1000DA6104E01E4AD26982431D4BDA617047F3
:100C200029B11B4AD2680243194BDA6004E0184A22
:100C3000D2688243164BDA60704729B1144A1269B0
:100C40000243134B1A6104E0114A12698243104BAC
:100C50001A61704712494039086070470F49C864EB
:100C600070470B49C87170470948406A40F080706E
:100C700007494862704701460020054A92680A40C9
:100C80000AB1012000E000207047014988727047D6
:100C9000001002400000FFF8FFFFF6FE0000424295
:100CA0008004424200127A0000093D001800002032
:100CB0002800002010B50446FE48844208D10121D6
:100CC000C014FFF7ADFF0021E014FFF7A9FFC4E057
:100CD000B4F1804F08D101210846FFF7AEFF002193
:100CE0000120FFF7AAFFB8E0F348844208D10121B0
:100CF0000220FFF7A2FF00210220FFF79EFFACE0D9
:100D0000EE48844208D101210420FFF796FF00211C
:100D10000420FFF792FFA0E0E948844208D10121B6
:100D20000820FFF78AFF00210820FFF786FF94E0E4
:100D3000E448844208D101211020FFF77EFF002102
:100D40001020FFF77AFF88E0DF48844208D10121B4
:100D50002020FFF772FF00212020FFF76EFF7CE0CC
:100D6000DA48844208D101214014FFF759FF0021DD
:100D70006014FFF755FF70E0D548844209D1012186
:100D8000C804FFF74DFF00214FF40020FFF748FF94
:100D900063E0D048844209D101210805FFF740FFF4
:100DA00000214FF48010FFF73BFF56E0CA48844211
:100DB00009D101214805FFF733FF00214FF400104E
:100DC000FFF72EFF49E0C548844208D101214020A9
:100DD000FFF733FF00214020FFF72FFF3DE0C04821
:100DE000844208D101218020FFF727FF00218020C5
:100DF000FFF723FF31E0BB48844208D10121801571
:100E0000FFF71BFF0021A015FFF717FF25E0B648ED
:100E1000844209D101210804FFF702FF00214FF4A9
:100E20008030FFF7FDFE18E0B048844209D101216F
:100E30004804FFF7F5FE00214FF40030FFF7F0FE05
:100E40000BE0AB48844208D101218804FFF7E8FE9B
:100E500000214FF48020FFF7E3FE10BD002202883E
:100E6000944B98420ED0994B98420BD0B0F1804FE2
:100E700008D0914B984205D0904B984202D0904BAD
:100E8000984204D14FF68F731A404B881A438D4B0A
:100E9000984207D08C4B984204D04FF6FF431A403B
:100EA000CB881A4302808B8883850B880385814B0E
:100EB00098420BD0854B984208D08B4B984205D076
:100EC0008A4B984202D08A4B984201D10B7A038612
:100ED00001238382704770B5002400220023058C13
:100EE0004FF6FE7635400584028C8388048B4FF6DE
:100EF0008F752C40B51E2C400D882C43751E2A4042
:100F00000D892A434D882A436A4DA8420BD06F4D64
:100F1000A84208D0744DA84205D0744DA84202D012
:100F2000734DA84213D14FF6F7752A404D892A43D5
:100F30004FF6FB752A408D882A434FF6FF652B40FC
:100F40004FF6FF552B408D892B43CD892B43838052
:100F50000483CD888586028470BD70B5002400228C
:100F60000023058C4FF6EF7635400584028C83888C
:100F7000048B48F6FF752C404FF6FF452C400D883A
:100F80004FF6FF7606EA05252C434FF6DF752A401B
:100F90000D8906EA05152A434D8806EA05152A43F8
:100FA000444DA84202D0494DA8421DD14FF67F754D
:100FB0002A404D894FF6FF7606EA05152A434FF67B
:100FC000BF752A408D8806EA05152A434FF6FF357E
:100FD0002B404FF2FF752B408D8906EA85052B4388
:100FE000CD8906EA85052B4383800483CD88058758
:100FF000028470BD70B5002400220023058C4FF6DA
:10100000FF6635400584028C8388848B4FF68F758C
:101010002C404FF6FC752C400D882C434FF6FF55A5
:101020002A400D894FF6FF7606EA05252A434D88AA
:1010300006EA05252A431F4DA84202D0234DA842A7
:101040001DD14FF2FF752A404D894FF6FF7606EA13
:1010500005252A434FF6FF352A408D8806EA0525E7
:101060002A434EF6FF752B404DF6FF752B408D89B8
:1010700006EA05152B43CD8906EA05152B43838027
:101080008483CD888587028470BD70B500220023DB
:101090000024058C4EF6FF7635400584038C848849
:1010A000828B48F6FF752A404FF6FF452A400D888F
:1010B00020E00000002C0140000400400008004037
:1010C000000C0040001000400014004000340140BB
:1010D000004C014000500140005401400018004005
:1010E000001C00400020004000400140004401403E
:1010F000004801404FF6FF7606EA05252A434DF6E3
:10110000FF752B400D8906EA05352B434D8806EA0D
:1011100005352B43FA4DA84202D0FA4DA84208D11A
:101120004BF6FF752C408D894FF6FF7606EA851544
:101130002C4384808283CD88A0F84050038470BD06
:10114000828B4FF2FF331A408283828B4FF6FF73FC
:1011500003EA01231A4382837047F0B50C46154613
:10116000002200210026078C4EF6FF7C07EA0C07C0
:101170000784828B018C4FF6FF7707EA043640F62E
:10118000FF473A404FF6FF7707EA05273A434FF605
:10119000FF7707EA03373A43D94FB8420ED0D94F09
:1011A000B8420BD0B0F1804F08D0D74FB84205D02D
:1011B000D64FB84202D0D64FB84206D14DF6FF778F
:1011C000394046F48057394305E047F6FF57394028
:1011D00044F48057394382830184F0BD828B4FF6FB
:1011E000F3731A408283828B0A4382837047F0B57F
:1011F0000C461546002200210026078C4FF6FF6C96
:1012000007EA0C070784828B018C4FF6FF7707EA09
:1012100004264FF60C773A404FF6FF7707EA03179C
:101220002F433A43B64FB8420ED0B64FB8420BD018
:10123000B0F1804F08D0B44FB84205D0B34FB84298
:1012400002D0B34FB84206D14FF6FF57394046F4AB
:101250008077394305E04FF2FF57394044F48077F7
:10126000394382830184F0BD028B4FF2FF331A4071
:101270000283028B4FF6FF7303EA01231A430283B2
:101280007047F0B50C461546002200210026078C59
:101290004FF6EF7C07EA0C070784028B018C4FF6B0
:1012A000FF7707EA041640F6FF473A404FF6FF770C
:1012B00007EA03373A434FF6FF7707EA05273A4331
:1012C0008F4FB8420ED08F4FB8420BD0B0F1804F45
:1012D00008D08D4FB84205D08C4FB84202D08C4F09
:1012E000B84206D14FF6DF77394046F01007394350
:1012F00005E04FF65F77394044F010073943028329
:101300000184F0BD028B4FF6F3731A400283028B07
:101310000A4302837047F0B50C46154600220021AF
:10132000068C4FF6FE773E400684028B018C4FF60A
:101330000C7632407E1C06EA03162E433243704E72
:10134000B0420ED06F4EB0420BD0B0F1804F08D0FB
:101350006D4EB04205D06D4EB04202D06C4EB042E0
:1013600006D14FF6FD76314044F00106314305E0E9
:101370004FF6F576314044F0010631430283018493
:10138000F0BD70B505460C465D4885420ED05D48FF
:1013900085420BD0B5F1804F08D05B48854205D01F
:1013A0005A48854202D05A48854200D100E000BF29
:1013B000208850B92389A28861882846FFF7ABFFAF
:1013C000E1882846FFF79EFF25E0208804280AD1FF
:1013D0002389A28861882846FFF753FFE1882846C1
:1013E000FFF742FF17E0208808280AD12389A28846
:1013F00061882846FFF7FBFEE1882846FFF7EEFEEE
:1014000009E02389A28861882846FFF7A6FEE188C3
:101410002846FFF795FE70BD2DE9F04105460C46C4
:1014200000260127608808B9022600E00026A0886F
:10143000012801D1022700E001272088A0B92389D3
:10144000A28861882846FFF766FFE1882846FFF7F3
:1014500059FF23893A4631462846FFF712FFE188B3
:101460002846FFF701FF13E02389A28861882846F8
:10147000FFF707FFE1882846FFF7F6FE23893A4683
:1014800031462846FFF747FFE1882846FFF73AFF35
:10149000BDE8F0810A884B881A438B881A43CB88B1
:1014A0001A430B891A434B891A438B891A43A0F8B4
:1014B000442070474FF6FF71818000210180C18078
:1014C0004180017270470021018041808180C1808C
:1014D000018141818181C18170470021018041806A
:1014E000012181800021C18001817047002101809C
:1014F00041808180C18001814181818170470000EC
:10150000002C01400034014000040040000800406D
:10151000000C004021B1028842F00102028004E088
:1015200002884FF6FE731A400280704731B1B0F85E
:10153000442042F40042A0F8442005E0B0F84420E2
:10154000C2F30E02A0F8442070471AB183890B43FE
:10155000838102E083898B43838170478182704756
:1015600041EA0203A0F8483070471AB183890B435F
:10157000838102E083898B438381704701894FF621
:10158000F8721140018170470A46002101894FF627
:101590008F73194011430181704730B504460D46E1
:1015A00029462046FFF7F0FF208940F00700208100
:1015B00030BD2DE9F04104460D4616461F46602D0C
:1015C00006D13B46012231462046FFF75AFE05E090
:1015D0003B46012231462046FFF79DFE2946204624
:1015E000FFF7D2FF208940F007002081BDE8F0819D
:1015F00030B50C4600210189C9B24FF6FF7505EAE6
:101600000325154325432943018130BD2DE9F041D0
:1016100005460E4617469846002443463A4631464C
:101620002846FFF7E5FF2C894FF6F870044044F098
:1016300007044FF68F70044044F070042C81BDE81D
:10164000F081F0B504460D4616461F463B4632462D
:1016500029462046FFF7CCFF208940F480402081B6
:10166000F0BD0185828270470A46002101884FF64D
:101670008F731940114301807047F0B50C46154631
:101680001E460021002200230189028B038C4FF6A5
:10169000F877394021434FF6FC473A4040F20117B2
:1016A0003A434FF6DD773B404FF6FF7707EA0617E0
:1016B0002F433B43018102830384F0BD0A4600218E
:1016C000018B4FF68F7319401143018370470A460F
:1016D0000021018B48F6FF7319404FF6FF7303EAB0
:1016E00002231943018370470A460021818B4FF67C
:1016F0008F7319401143818370470A460021818B03
:1017000048F6FF7319404FF6FF7303EA02231943AB
:101710008183704721B1028842F08002028004E098
:1017200002884FF67F731A400280704721B1828889
:1017300042F00402828004E082884FF6FB731A4074
:101740008280704721B1828842F00802828004E0E2
:1017500082884FF6F7731A408280704721B18288E1
:1017600042F00102828004E082884FF6FE731A4044
:10177000828070470A460021018B4FF6F7731940AB
:101780001143018370470A460021018B4FF2FF731A
:1017900019404FF6FF7303EA022319430183704790
:1017A0000A460021818B4FF6F7731940114381835C
:1017B00070470A460021818B4FF2FF7319404FF6A4
:1017C000FF7303EA02231943818370470A4600210D
:1017D000018B4FF6FB7319401143018370470A4692
:1017E0000021018B4FF6FF3319404FF6FF7303EAD8
:1017F00002231943018370470A460021818B4FF66B
:10180000FB7319401143818370470A460021818B85
:101810004FF6FF3319404FF6FF7303EA02231943D3
:10182000818370470A460021018B4FF67F73194070
:101830001143018370470A460021018BC1F30E0159
:101840004FF6FF7303EA02231943018370470A46E8
:101850000021818B4FF67F731940114381837047BC
:101860000A460021818BC1F30E014FF6FF7303EA94
:1018700002231943818370470A460021018C4FF6E9
:10188000FD7319401143018470470A460021018C01
:101890004FF6F77319401143018470470A4600213F
:1018A000018C4FF6DF7319404FF6FF7303EA021302
:1018B0001943018470470A460021018C4FF67F735B
:1018C00019404FF6FF7303EA02131943018470476E
:1018D0000A460021018C4FF6FF5319404FF6FF7363
:1018E00003EA02231943018470470A460021018C50
:1018F0004FF2FF7319404FF6FF7303EA02231943B7
:10190000018470470A460021018C4DF6FF7319408F
:101910004FF6FF7303EA023319430184704730B571
:10192000002301248C40A3B2048C9C430484048CC7
:1019300002FA01F5ADB22C43048430BD30B500236A
:1019400004248C40A3B2048C9C430484048C02FACB
:1019500001F5ADB22C43048430BD70B503460020C0
:1019600000241846183001258D40ACB21D8CA543CB
:101970001D8409B1082909D100EB6100056825F033
:10198000700505600568154305600EE00D1FC5F381
:101990004E052844056825F4E045056005684FF6C6
:1019A000FF7606EA02263543056070BD21B1028844
:1019B00042F00202028004E002884FF6FD731A40F2
:1019C0000280704721B1028842F00402028004E0E4
:1019D00002884FF6FB731A400280704721B182885B
:1019E00042F08002828004E082884FF67F731A40C2
:1019F0008280704702884FF6F7731A40028002888F
:101A00000A430280704782884FF68F731A408280A3
:101A100082880A438280704702894FF6F8731A4021
:101A2000028102890A430281704702894FF67F735F
:101A30001A40028102890A430281704781847047FB
:101A4000818570478186704701877047818770471D
:101A5000A0F84010704702884FF6FF431A400280FA
:101A600002880A43028070470146888E704701460B
:101A7000088F70470146888F70470146B1F84000D3
:101A800070470146888C70470146088D70470246B2
:101A90000020138A0B400BB1012000E000207047AA
:101AA000CA430282704730B502460020002300245A
:101AB000158A05EA0103958905EA010413B10CB101
:101AC000012000E0002030BDCA43028270470000C0
:101AD00010B50446FB48844209D101218803FFF771
:101AE0009FF800214FF48040FFF79AF832E0F64863
:101AF000844209D101214804FFF79FF800214FF4E7
:101B00000030FFF79AF825E0F048844209D101211E
:101B10008804FFF792F800214FF48020FFF78DF83A
:101B200018E0EB48844209D10121C804FFF785F889
:101B300000214FF40020FFF780F80BE0E5488442D5
:101B400008D101210805FFF778F800214FF4801033
:101B5000FFF773F810BD2DE9F04786B005460E4635
:101B60000024A24600BFA1460027B08900B100BFF3
:101B70002F462C8A4CF6FF700440F08804432C82D8
:101B8000AC894EF6F3100440B0883189084371895E
:101B900008430443AC81AC8A4FF6FF400440B0894F
:101BA0000443AC8201A8FEF7B4FFC648874202D1C5
:101BB000DDF810A001E0DDF80CA0A88900F40040D9
:101BC00040B10AEBCA0000EB0A1031684900B0FBD3
:101BD000F1F807E00AEBCA0000EB0A10316889004F
:101BE000B0FBF1F86420B8FBF0F004012009642197
:101BF00001FB1089A88900F4004040B1322000EBBD
:101C0000C900B0FBF1F000F00700044308E0322007
:101C100000EB09106421B0FBF1F000F00F00044369
:101C20002C8106B0BDE8F0874FF416510160002109
:101C30008180C18001810C21418100218181704717
:101C400010B502460020108A4FF2FF0318400B889F
:101C50004C8823438C882343CC8823431843108229
:101C600010BD0021018041808180C180704721B179
:101C7000828942F40052828104E082894DF6FF732A
:101C80001A4082817047F0B50346002400260025E3
:101C9000002040F66A17B94200D100BF1846C1F3D0
:101CA000421401F01F06012707FA06F5012C01D1A5
:101CB0000C3004E0022C01D1103000E014301AB1D5
:101CC00007682F43076002E00768AF430760F0BD75
:101CD0001AB1838A0B43838202E0838A8B43838217
:101CE0007047028A4FF6F0731A400282028A0A4352
:101CF0000282704782894FF2FF731A408281828983
:101D00000A438281704721B1828942F002028281B6
:101D100004E082894FF6FD731A4082817047028A7F
:101D20004FF6DF731A400282028A0A43028270472A
:101D300021B1028A42F48042028204E0028A4BF618
:101D4000FF731A4002827047C1F308028280704715
:101D500001468888C0F308007047818941F001017D
:101D600081817047028BD2B20283028B42EA012248
:101D700002837047028B02F47F420283028B0A4384
:101D80000283704721B1828A42F02002828204E0FD
:101D9000828A4FF6DF731A408282704721B1828AAD
:101DA00042F01002828204E0828A4FF6EF731A40FA
:101DB0008282704721B1828A42F00802828204E066
:101DC000828A4FF6F7731A408282704721B1828966
:101DD00042F40042828103E08289C2F30E028281D2
:101DE000704721B1828A42F40062828204E0828AD2
:101DF0004FF2FF731A4082827047828A4FF6FB735C
:101E00001A408282828A0A438282704721B1828A82
:101E100042F00202828204E0828A4FF6FD731A4089
:101E20008282704702460020B1F5007F00D100BFDA
:101E300013880B400BB1012000E00020704701F433
:101E40000072B2F5007F00D100BFCA430280704724
:101E500070B50246002400230025002040F66A16D3
:101E6000B14200D100BFC1F3421501F01F030126AA
:101E700006FA03F3012D02D19689334006E0022DC4
:101E800002D1168A334001E0968A33400C120126B3
:101E900006FA04F41688344013B10CB1012000E0B6
:101EA000002070BD10B50022002340F66A14A14244
:101EB00000D100BF0A1201249440A3B2DC43048085
:101EC00010BD0000003801400044004000480040C0
:101ED000004C00400050004001684FF6FE72114077
:101EE00001600021016041608160C1608D498842CC
:101EF00008D18C490839496841F00F01894A083AEC
:101F000051608AE087491431884208D185490839EF
:101F1000496841F0F001834A083A51607DE0814907
:101F20002831884208D17F490839496841F47061F5
:101F30007C4A083A516070E07A493C31884208D1C5
:101F400078490839496841F47041764A083A516045
:101F500063E074495031884208D1724908394968B0
:101F600041F470216F4A083A516056E06D4964317E
:101F7000884208D16B490839496841F47001694ABF
:101F8000083A516049E067497831884208D165498B
:101F90000839496841F07061624A083A51603CE092
:101FA0006149884206D1011F096841F00F01021FF3
:101FB000116032E05C491431884208D15A49091F46
:101FC000096841F0F001584A121F116025E0564996
:101FD0002831884208D15449091F096841F47061C9
:101FE000514A121F116018E04F493C31884208D114
:101FF0004D49091F096841F470414B4A121F116095
:102000000BE049495031884207D14749091F096807
:1020100041F47021444A121F1160704710B500222C
:10202000026847F6F0739A430C6A8B6823430C6985
:1020300023434C6923438C692343CC6923434C6A73
:1020400023438C6A23431A430260CB6843600B68C6
:1020500083604B68C36010BD0021016041608160F6
:10206000C160016141618161C1610162416281625E
:10207000704721B1026842F00102026004E0026888
:102080004FF6FE731A40026070471AB103680B43A3
:10209000036002E003688B43036070474160704750
:1020A0000146486880B2704701460020002201F0D6
:1020B00080531BB11C4B083B1A6802E0194B083BCC
:1020C0001A6802EA01030BB1012000E0002070470A
:1020D00000F0805119B11449091F086002E011494C
:1020E00008394860704701460020002201F0805303
:1020F0001BB10D4B083B1A6802E00A4B083B1A68FB
:1021000002EA01030BB1012000E00020704700F05B
:10211000805119B10449091F086002E001490839DA
:1021200048607047080002400804024010B54FF4B0
:10213000A060FEF7D1F901F079F8FEF763F900210C
:1021400043F63F0000F014F847214FF6FF7000F00F
:102150001FFB47214FF6FF7000F02CF940F6B83016
:10216000FEF78DF900F0C6FE00F000FD10BD000086
:1021700030B589B005460C460121C802FEF736FD90
:1021800001210520FEF732FD4FF48070ADF82000EC
:1021900018208DF8230003208DF8220008A981481B
:1021A000FEF768FA4FF40070ADF8200018208DF8A3
:1021B000230003208DF8220008A97A48FEF75AFA76
:1021C0004FF48060ADF8200018208DF82300032024
:1021D0008DF8220008A97348FEF74CFA4FF400600E
:1021E000ADF8200018208DF8230003208DF8220080
:1021F00008A96C48FEF73EFAADF81850ADF8144047
:102200000020ADF81A00ADF8160005A96648FEF7E3
:1022100025FE6020ADF804000120ADF80600002086
:10222000ADF80A00ADF80C0001A95F48FEF753FEB7
:1022300001A95D48FEF791FE01A95B48FEF7DAFEB1
:1022400001A95948FEF721FF01215748FFF76EF910
:1022500008215548FFF78EFA08215348FFF793FAF3
:1022600008215148FFF79CFA08214F48FFF7A1FACF
:1022700001214D48FFF74EFA01214B48FFF74AF97B
:1022800009B030BD10B5044614BB10214548FEF717
:102290009EFA4FF400414548FEF79BFA4FF4804107
:1022A0004248FEF794FA4FF400514048FEF791FA85
:1022B00004213F48FEF78BFA20213A48FEF789FABD
:1022C00010213B48FEF783FA20213948FEF781FAB6
:1022D000012C1FD110213348FEF77BFAE10333486C
:1022E000FEF775FAA1033148FEF773FA61032F4830
:1022F000FEF76DFA04212E48FEF76BFA20212948DB
:10230000FEF765FA10212A48FEF763FA20212848D3
:10231000FEF75DFA022C1FD110212248FEF759FA70
:10232000A1032248FEF753FA61032048FEF74FFA53
:1023300021031E48FEF74DFA04211D48FEF747FA17
:1023400020211848FEF745FA10211948FEF741FAF6
:1023500020211748FEF73BFA032C22D11021114807
:10236000FEF735FA4FF400411048FEF732FA4FF409
:1023700080410E48FEF72DFA4FF400510B48FEF74E
:1023800026FA04210A48FEF724FA20210548FEF720
:102390001EFA10210648FEF71AFA20210448FEF71B
:1023A00018FA10BD00080140002C01400010014047
:1023B000000C014030B589B005460C4601210220D1
:1023C000FEF721FC01210D20FEF710FCC020ADF826
:1023D000200028208DF8230008A9E548FEF74AF9D7
:1023E000C021E348FEF7F5F90320ADF820002820CE
:1023F0008DF8230008A9DF48FEF73CF90321DD48EA
:10240000FEF7E7F9ADF81850ADF814400020ADF82C
:102410001A00ADF8160005A9D748FEF71FFD0020E9
:10242000ADF80400ADF806000120ADF8080000206A
:10243000ADF80A000F20ADF80C0001A9CE48FEF758
:10244000A0FF0420ADF804000020ADF80600012034
:10245000ADF808000020ADF80A000F20ADF80C0020
:1024600001A9C548FEF78DFF0820ADF80400002043
:10247000ADF806000120ADF808000020ADF80A0014
:102480000F20ADF80C0001A9BB48FEF77AFF0C2025
:10249000ADF804000020ADF806000120ADF80800FA
:1024A0000020ADF80A000F20ADF80C0001A9B248D9
:1024B000FEF767FF1D208DF8100001208DF8110038
:1024C00000208DF8120001208DF8130004A8FEF7FB
:1024D00008F801221E21A848FFF737F80121A64875
:1024E000FFF718F809B030BD10B50221A248FFF778
:1024F000DAFA002845D0A148007840B901209F4968
:1025000008709D48FFF7B0FA9C49488039E09B4825
:102510000078012835D10020984908709648FFF7C7
:10252000A3FA96498880084640888988884207DA55
:102530009248808891494988401A9049088113E05F
:102540008E4840888D49898888420ADD8B484088BA
:102550004FF6FF71081A894989880844874908811C
:1025600002E001208549088184480089844991FB63
:10257000F0F08249C8800846C088642801DA00204B
:10258000C88004217C48FFF78EFA002845D07D489A
:10259000007840B901207B4908707748FFF767FA57
:1025A0007849488039E077480078012835D1002003
:1025B000744908707048FFF75AFA724988800846D3
:1025C00040888988884207DA6E4880886D49498842
:1025D000401A6C49088113E06A4840886949898833
:1025E00088420ADD674840884FF6FF71081A65493E
:1025F000898808446349088102E001206149088113
:10260000604800895E4991FBF0F05E49C880084649
:10261000C088642801DA0020C88008215648FFF7E6
:1026200042FA002845D05848007840B90120564960
:1026300008705148FFF71EFA5349488039E0524864
:102640000078012835D100204F4908704A48FFF72B
:1026500011FA4D498880084640888988884207DAFF
:102660004948808848494988401A4749088113E009
:10267000454840884449898888420ADD4248408864
:102680004FF6FF71081A4049898808443E4908817D
:1026900002E001203C4908813B480089384991FB10
:1026A000F0F03949C8800846C088642801DA002063
:1026B000C88010213048FFF7F6F9A8B333480078F6
:1026C00040B90120314908702B48FFF7D6F92F494E
:1026D00048803AE02D480078012836D100202B4967
:1026E00008702548FFF7C9F92849888008464088BE
:1026F0008988884207DA2548808824494988401A11
:102700002249088114E0214840882049898888426C
:102710000BDD1E4840884FF6FF71081A1B49898857
:1027200008441A49088103E00FE001201749088195
:1027300016480089124991FBF0F01449C8800846F8
:10274000C088642801DA0020C8801E210A48FFF7EB
:10275000BBF910BD0146B1F5FA7F02DD4FF4FA7006
:102760007047322901DA0020FAE70846F8E700004E
:1027700000080140000C01400004004074020020E9
:1027800040420F007E0200208802002092020020BA
:1027900030B589B005460C4601210846FEF733FAEC
:1027A00001210D20FEF722FA0121E848FEF733F857
:1027B0000320ADF8200028208DF8230008A9E44864
:1027C000FDF758FF0321E248FEF703F84FF440609D
:1027D000ADF8200028208DF8230008A9DD48FDF77A
:1027E00049FF4FF44061DB48FDF7F3FFADF81850A7
:1027F000ADF814400020ADF81A00ADF8160005A998
:102800004FF08040FEF72AFB0020ADF80400ADF841
:1028100006000120ADF808000020ADF80A000F20E6
:10282000ADF80C0001A94FF08040FEF7AAFD04208E
:10283000ADF804000020ADF806000120ADF8080056
:102840000020ADF80A000F20ADF80C0001A94FF0F0
:102850008040FEF796FD0820ADF804000020ADF89A
:1028600006000120ADF808000020ADF80A000F2096
:10287000ADF80C0001A94FF08040FEF782FD0C205E
:10288000ADF804000020ADF806000120ADF8080006
:102890000020ADF80A000F20ADF80C0001A94FF0A0
:1028A0008040FEF76EFD1C208DF8100001208DF891
:1028B00011008DF812008DF8130004A8FDF711FE29
:1028C00001221E219007FEF740FE01218807FEF736
:1028D00021FE09B030BD10B502214807FFF7E3F82B
:1028E000002846D09C48007840B901209A490870D9
:1028F0008007FFF7B9F8984948803AE09648007891
:10290000012836D10020944908704FF08040FFF72D
:10291000ABF891498880084640888988884207DA60
:102920008D4880888C494988401A8B49088113E07A
:10293000894840888849898888420ADD86484088D5
:102940004FF6FF71081A8449898808448249088132
:1029500002E00120804908817F4800897F4991FB7E
:10296000F0F07D49C8800846C088642801DA00205C
:10297000C88004210807FFF796F8002846D0784859
:10298000007840B90120764908708007FFF76FF89A
:10299000734948803AE072480078012836D1002017
:1029A0006F4908704FF08040FFF761F86C498880EC
:1029B000084640888988884207DA694880886849DB
:1029C0004988401A6649088113E06548408864498F
:1029D000898888420ADD624840884FF6FF71081AEC
:1029E0005F49898808445E49088102E001205C490A
:1029F00008815B480089594991FBF0F05849C8802B
:102A00000846C088642801DA0020C8800821C8066A
:102A1000FFF749F8002846D05248007840B9012015
:102A2000504908708007FFF725F84E4948803AE082
:102A30004C480078012836D100204A4908704FF0F0
:102A40008040FFF717F84749888008464088898802
:102A5000884207DA4348808842494988401A4149F8
:102A6000088113E03F4840883E49898888420ADD52
:102A70003C4840884FF6FF71081A3A498988084453
:102A80003849088102E0012036490881354800892B
:102A9000324991FBF0F03349C8800846C088642869
:102AA00001DA0020C88010218806FEF7FCFFB0B3D1
:102AB0002D48007840B901202B4908708007FEF7A7
:102AC000DCFF294948803BE027480078012837D1BE
:102AD0000020254908704FF08040FEF7CEFF2249C4
:102AE0008880084640888988884207DA1E4880889E
:102AF0001D494988401A1C49088114E01A48408839
:102B00001949898888420BDD174840884FF6FF71C4
:102B1000081A1549898808441349088103E00FE021
:102B2000012011490881104800890C4991FBF0F0FF
:102B30000D49C8800846C088642801DA0020C88092
:102B40001E214FF08040FEF7BFFF10BD00021800AD
:102B500000080140000C01409C02002040420F0090
:102B6000A6020020B0020020BA0200201FB50121F9
:102B70000420FEF748F84720ADF8080040F2E7309F
:102B8000ADF804000020ADF80A00ADF8060001A978
:102B90001648FEF763F9012211461448FEF7D5FCEA
:102BA0001E208DF8000000208DF801008DF8020035
:102BB00001208DF803006846FDF793FC01210B48C6
:102BC000FEF7A8FC1FBD10B501210848FEF76BFFFA
:102BD00050B101210548FEF777FF00F07FFC044863
:102BE0000068401C0249086010BD00000008004059
:102BF0002C00002000B591B001210420FDF7F6FF64
:102C000001218803FDF7F2FF01210846FDF7E1FFEE
:102C1000AB48FEF75DFF4FF48060ADF84000042044
:102C20008DF8430010A9A748FDF724FD0CA8FEF776
:102C3000FBFF4FF4E1300C900020ADF83400ADF80C
:102C40003600ADF838000420ADF83A000020ADF8A9
:102C50003C000CA99A48FEF77EFF012240219848CB
:102C6000FFF736F89848FFF737F99548001D0090B0
:102C700096480190002002900D20039000200490BF
:102C800080200590002006900790202008904FF4A7
:102C90004050099000200A9069468B48FFF7BEF922
:102CA0000F208DF82C0001208DF82D0000208DF8CC
:102CB0002E0001208DF82F000BA8FDF712FC01213A
:102CC0008148FFF7D6F9012202217F48FFF7DDF99D
:102CD00001217B48FEF7CBFF11B000BD02460AB9C7
:102CE00008B27047012A02D1484200B2F9E7002039
:102CF000F7E770B504467648B0F9000075490880DA
:102D0000734804800146B1F90010724AB2F90020FC
:102D1000881A00F0ABFF20F000456F49284600F00C
:102D2000D1FF03D26B48B0F9000070BD6848B0F91C
:102D30000000FAE770B50024022003E06749095C4F
:102D40000C44401C0A28F9DB6448807AE1B28842CE
:102D500063D162488078C009614908715F48C078D2
:102D60005E49897801F07F0140EA01205C490880D2
:102D70000A4611881079FFF7B1FF0546FFF7B9FF42
:102D80005749488055480079C00956490871534849
:102D900040795249097901F07F0140EA0120514907
:102DA00008800A4611881079FFF798FF0546FFF75B
:102DB000A0FF4C49488049488079C0094A490871B8
:102DC0004648C0794549897901F07F0140EA0120F0
:102DD000454908800A4611881079FFF77FFF0546AC
:102DE000FFF787FF404948803C48007AC0093F49C7
:102DF00008713A48407A3949097A01F07F0140EA7E
:102E000001203A4908800A4611881079FFF766FFC9
:102E10000546FFF76EFF3549488070BD10B54FF489
:102E20000030FFF760F9002849D04FF40030FFF779
:102E30004FF94FF40030FFF76AF9244800785A2818
:102E40000BD122484078A52807D10D221F492348DD
:102E500000F0EEFCFFF76EFF31E000242448007B19
:102E60005A2805D119480078A52801D10C2410E072
:102E700000200BE01E49095C5A2906D11C4A411C5E
:102E8000515CA52901D1044602E0401C0D28F1DB6C
:102E900000BFC4F10D0216480119104800F0C8FC2B
:102EA0000E490D31081B2246084900F0C1FC0D22D5
:102EB00006490F4800F0BCFCFFF73CFF00BF10BD07
:102EC000003801400008014058000240C4020020C0
:102ED0004A000020480000200080BB44D1020020AE
:102EE00030000020360000203C000020420000207E
:102EF000DE02002000B591B001210420FDF776FE2E
:102F000001214804FDF77FFE01210846FDF761FE1F
:102F1000BA48FEF7DDFD0820ADF8400004208DF82A
:102F2000430010A9B648FDF7A5FB0CA8FEF77CFEF0
:102F30004FF4E1300C900020ADF83400ADF83600CD
:102F4000ADF838000420ADF83A000020ADF83C00A0
:102F50000CA9AA48FEF7FFFD01224021A748FEF771
:102F6000B7FEA848FEF7B8FFA448001D0090A64889
:102F70000190002002900520039000200490802002
:102F80000590002006900790202008904FF44050B4
:102F9000099000200A9069469A48FFF73FF81020F0
:102FA0008DF82C0000208DF82D0001208DF82E00CA
:102FB0008DF82F000BA8FDF794FA01219148FFF737
:102FC00058F8012202218F48FFF75FF801218B4852
:102FD000FEF74DFE11B000BD8C4989788C4A117006
:102FE0008A49C978918089490979D18011468988AF
:102FF000503991601146C9883C39D1600020114692
:1030000009788C2903DC11460978282912DA8049CD
:1030100009788C2909DD7E49B1F91010B42904DA48
:103020007B4909785A39C8B210E0794909785A3190
:10303000C8B20BE076490978462907DD744909785A
:103040006E2903DA72490978714A917070494870A3
:10305000704710B54FF40010FFF745F800284BD02B
:103060004FF40010FFF734F84FF40010FFF74FF85B
:10307000654800785A280CD163484078A52808D1C3
:10308000624861490A68026009790171FFF7A4FF8B
:1030900032E000245F4800795A2805D15A48007868
:1030A000A52801D1042410E000200BE05949095C57
:1030B0005A2906D1574A411C515CA52901D1044621
:1030C00002E0401C0528F1DB00BFC4F105025148B5
:1030D00001194E4800F0ACFB4C49491D081B224623
:1030E000494900F0A5FB4B4847490A680260097945
:1030F0000171FFF771FF00BF10BD70B5044646486F
:10310000B0F9000045490880434804800146B1F900
:103110000010424AB2F90020881A00F0A7FD20F002
:1031200000453F49284600F0CDFD03D23B48B0F9A9
:10313000000070BD3848B0F90000FAE72DE9F04111
:1031400006460C463748A0603748E0600020C4F8C7
:103150008C00D4E90001401E814207DA6168481CF6
:10316000606004F1140040F8216006E004F11400EE
:10317000616840F8216000206060002524E004F1CF
:10318000140252F82500A16800F09CFE04D204F15C
:10319000140050F82500A06004F1140252F8250034
:1031A000E16800F08FFD04D204F1140050F825000E
:1031B000E06004F1140252F82510D4F88C0000F0FD
:1031C000E9FBC4F88C006D1C2068A842D7DC21689C
:1031D000881E00F04BFD0746A168D4F88C0000F073
:1031E000A3FE8046E16800F09FFE0546394600F0E8
:1031F0003FFC20612069BDE8F081000000440040F0
:10320000000801406C0002404C00002051000020EA
:10321000EC020020560000207E0100207C010020EE
:103220000000204200C079C400C0794408B50121E3
:103230001C20FDF7DBFC4FF49270ADF8000010206D
:103240008DF8030003208DF8020069468048FDF7E1
:1032500011FA4FF492717E48FDF7BBFA3020ADF8B9
:10326000000010208DF8030003208DF8020069464D
:103270007848FDF7FFF930217648FDF7AAFA4FF4B8
:103280006040ADF8000010208DF8030003208DF899
:10329000020069467048FDF7EDF94FF460416E4851
:1032A000FDF797FA08BD00206C49086001206C49C1
:1032B000C1F8BC0100206B4908600120091F0860AB
:1032C0006949086000206549091D086001206649B8
:1032D0001831086000206549C1F89401704700204A
:1032E0005E4908605E49C1F8BC015F4908605B49FE
:1032F000091D08605B490860091F08605A491831B8
:1033000008605A49C1F89401704701205349086088
:1033100000205349C1F8BC01012052490860002037
:10332000091F08605049086001204C49091D0860C8
:1033300000204D491831086001204C49C1F8940122
:10334000704701204549086000204549C1F8BC018B
:10335000704700204449086001204549C1F89401A4
:10336000704701203F49086000203D49C1F8B40181
:10337000704700203C491831086001203B49C1F8E2
:103380009401704700203549086001203449C1F894
:10339000BC01704701203449086000203449C1F85D
:1033A0009401704700202F49086001202C49C1F882
:1033B000B401704701202C491831086000202B49C6
:1033C000C1F8940170470020244908602449C1F8DD
:1033D000BC0170470020234908602149C1F8B401AD
:1033E00070470020204908602149C1F894017047C6
:1033F00000201D49183108601C49C1F8940170472C
:1034000000B5FFF7CFFFFFF7C5FFFFF79AFFFFF704
:10341000B0FF00BD00B5FFF7B5FFFFF7CBFFFFF72B
:10342000A0FFFFF796FF00BD00B5FFF79AFFFFF77B
:10343000B1FFFFF79EFFFFF7A5FF00BD00B5FFF747
:1034400088FFFFF7AFFFFFF77CFFFFF7B3FF00BD7B
:10345000000C014000080140001001409001214291
:1034600000002242B801224288812142008021428C
:10347000000021422DE9F04104460F4615461E4644
:103480006D49C8886D4A214600F0F8F86C49C88833
:103490006C4A394600F0F2F86B49C8886B4A2946F5
:1034A00000F0ECF86A49C8886A4A314600F0E6F84C
:1034B0006248818B6848FEF7C9FA6248818B66488A
:1034C000FEF7C6FA6148818B6348FEF7BBFA614894
:1034D000818B6148FEF7B8FABDE8F08170B55F48AE
:1034E00040885E4908805E48807848800846408869
:1034F0000988401A002805DD58484088574909883E
:10350000401A0AE055484088404254490988401A08
:10351000322801DD012000E00020A8B151480078E8
:1035200090B94F48807C401C4D49887401204D491A
:1035300008704D4800684D490860002047494880A0
:1035400008804749887046E04448408843490988D4
:10355000401A002805DD4148408840490988401A42
:103560000AE03E48408840423C490988401A3228D7
:1035700001DD012000E0002068B33A48007801280E
:1035800029D13948006839490968401AB0F5617F86
:103590000FD93348807C401C314988743248006818
:1035A0003249086000202D49088048802C498870E5
:1035B00011E02D4800682D490968401AB0F5967F42
:1035C00009D2294800682949086000202349088059
:1035D0004880234988702249487800F05FFB044600
:1035E000234A2146234800F0ADF8FFF75CFE224C49
:1035F000A48B64421E4DAD8B641B04F57A74A3B298
:103600001D4CA48B1A4DAD8B2C4404F57A74A2B2D8
:10361000194CA48B6442164DAD8B2C4404F57A747E
:10362000A1B2154CA48B124DAD8B641B04F57A74BA
:10363000A0B2FFF71FFF70BD9C020020990100207F
:10364000B0020020B701002088020020D501002030
:1036500074020020F3010020002C01408E010020A4
:10366000EC0200208C0100202C000020940100209E
:10367000110200200000B442410200202DE9FE4F5B
:1036800006460D4614462068029060680190A068C6
:103690000090304600F002FB07465E4900F012FC45
:1036A00001D244F62066284600F0F8FA07465A4947
:1036B00000F008FC01D243F63F052069E060A81B3A
:1036C00000F0D4FA20612169606900F063F960615B
:1036D0006069504900F0F6FB01D24E4860616069B4
:1036E0004E4900F0EFFA01D24A486061E168206972
:1036F00000F01AFCA061A069009900F017FB814658
:103700006069019900F012FB82462069029900F07D
:103710000DFB8346514600F03DF98046494600F0D6
:1037200039F9074600F082FAA083A08B00F0B6FAC0
:103730000746394900F0C6FB02D243F63F00A0839A
:10374000BDE8FE8F2DE9F05F05460E461446606A1F
:1037500000F08CFA0746294600F0B4FA03D2606AFA
:1037600000F084FA0546206A00F080FA07462946F0
:1037700000F0A8FB03D2206A00F078FA0546206921
:10378000E0603146284600F0CFFB20612169606986
:1037900000F000F96061E168206900F0C5FBA061FC
:1037A00060691F4900F08EFB01D21D4860616069AD
:1037B0001C4900F087FA01D21A486061A168A0692B
:1037C00000F0B4FA81466168606900F0AFFA8246A1
:1037D0002168206900F0AAFA8346514600F0DAF821
:1037E0008046494600F0D6F8074600F003FAE0614B
:1037F000E069E16A884201DDE06AE061E069A16AAE
:10380000884201DAA06AE061E06900F02FFABDE8C1
:10381000F09F000000409C4600FC604600409CC6B3
:103820000000C8430000C8C3FEF780FC00BFFEE7ED
:10383000032A40F2308010F0030C00F0158011F8DC
:10384000013BBCF1020F624498BF11F801CB00F8B4
:10385000013B38BF11F8013BA2F1040298BF00F808
:1038600001CB38BF00F8013B11F0030300F02880C2
:10387000083AC0F0088051F8043B083A51F804CBEC
:10388000A0E80810F5E7121D5CBF51F8043B40F8B2
:10389000043BAFF30080D20724BF11F8013B11F8BD
:1038A00001CB48BF11F8012B24BF00F8013B00F801
:1038B00001CB48BF00F8012B704770477047704735
:1038C00010B5203AC0F00B80B1E81850203AA0E8BB
:1038D0001850B1E81850A0E81850BFF4F5AF5FEAEF
:1038E000027C24BFB1E81850A0E8185044BF18C9A2
:1038F00018C0BDE810405FEA827C24BF51F8043B49
:1039000040F8043B08BF7047D20728BF31F8023B9C
:1039100048BF11F8012B28BF20F8023B48BF00F830
:10392000012B7047754600F029F8AE460500694640
:10393000534620F00700854618B020B5FCF752FC2E
:10394000BDE820404FF000064FF000074FF00008A0
:103950004FF0000B21F00701AC46ACE8C009ACE821
:10396000C009ACE8C009ACE8C0098D467047044600
:10397000AFF300802046FCF720FC000000487047B1
:103980000003002001491820ABBEFEE7260002001C
:103990007047000090EA010F48BF81F0004100F13C
:1039A000CA82421A3CBF801A89184FEAD0524FF09F
:1039B0007F4C1CEA410FA2EBD15318BF9CEA026F67
:1039C00000F03B804FF0004C4CEA00204CEA012113
:1039D00021FA03FC10EB0C0C1ED202F1FF325FEA5D
:1039E0001C2040EBC25038BF70471CF07F0F4FEADD
:1039F000400C18BFBCF17F4F38BF7047C3F12003A4
:103A0000994008BF20F00100BCF17F4F38BF7047DC
:103A1000A0F1C04000F051BA4FEA3C00000A40EB70
:103A2000C25028BF1CF0FF0F4FEA400CE6D018BF71
:103A3000BCF17F4F38BF7047EAE79CEA026F05D0C0
:103A400010EA5C0F08BF00F00040704710B500F0AE
:103A5000EEF900BF64FBBE3E401058BFC0F14040CD
:103A6000491058BFC1F140418142EFF300807047D7
:103A70004FF47F0C1CEAD0121EBF1CEAD11392EA4D
:103A80000C0F93EA0C0F00F0858090EA010F48BFFD
:103A900042F4807240F4000C41F400002CF07F41AD
:103AA00020F07F4000B58142A2EB03020FF2081C18
:103AB000ACEB504EC0F100009EF800E04FEA4E0E15
:103AC00000FB0EFC38BF49004FEA2C1C02F5FA023D
:103AD0000CFB0EF34FEACE1E4FEA112C4FEAC12128
:103AE0000EEB635E42EB22420EFB0CFC4FEA1C53D2
:103AF00000FB03114FEA112C4FEA01310EFB0CFCC5
:103B00004FEADC4C00FB0C11C14228BF09184CEBFA
:103B100003335DF804EB10EB410143EBC250B2F507
:103B20007C0F38BF704729D512F0F00F1CBF00F191
:103B3000C04000F000407047008182838485868702
:103B400088898B8C8D8E8F919293959697999A9C5C
:103B50009D9FA0A2A3A5A7A8AAACAEB0B2B3B5B7CB
:103B6000B9BCBEC0C2C5C7C9CCCED1D4D7D9DCDFA1
:103B7000E2E6E9ECF0F3F7FAFE0000004FEA400C51
:103B80000CF1807CBCF17E4F28BF7047B0F1C04083
:103B900000F093B990EA010F0CEAD11348BF42F448
:103BA0008072624538BF634507D213F47F0F16D089
:103BB00080EA010000F00040704710B500F037F9CE
:103BC000097EFC3E00F005B880EA010000F00040EC
:103BD000704780EA010000F0004000F06EB912F476
:103BE0007F0F04BF0248704780EA010000F065B90A
:103BF0000000C07F41000B0ED3F19E0208D950F4A3
:103C000000034FEA032323FA02F048BF4042704703
:103C100010B500F00CF900BF4992248000207047D5
:103C20006FF0004282EA200070470000C10DD1F120
:103C30009E0206DB4FEA002343F0004323FA02F022
:103C40007047004207D54FEA4001B1F1FE4F02D262
:103C50004FF00000704710B500F0E9F84992248059
:103C6000002070476FEA20007047000010F000410C
:103C700048BF4042B0FA80F310FA03F2C3F19D034B
:103C80000BD051EAC35101EB1220530638BF7047E5
:103C900000F1010008BF20F001007047B0FA80F386
:103CA00010FA03F2C3F19D030AD0D90501EB1220EB
:103CB000530638BF704700F1010008BF20F0010033
:103CC0007047000050EA010C00F113801CF5000F52
:103CD00058BFBCF5000F01D48842704707D710F5D4
:103CE000000F58BF11F5000F15D488427047894264
:103CF00070471CF5000F04D5BCF5000FF7D58142C5
:103D000070474FF0807C1CEB400F38BF1CEB410F1D
:103D100001D28142704710B500F089F89224490021
:103D20004FF000504FF08051FFF796BE4FF47F0CDC
:103D30001CEAD0121EBF1CEAD11392EA0C0F93EAC0
:103D40000C0F00F0478090EA010F48BF42F48072E8
:103D50004FF0004C4CEA00204CEA012102EB030238
:103D6000A0FB0113A2F50002002918BF43F00103D4
:103D70005B0028BF4FEA330342EB22425FEA132C79
:103D80004CEBC2502EBFBCEB436FB2F57C0F7047BB
:103D90004FEA036CBCF1004F08BF20F00100B2F500
:103DA0007C0F38BF70470BD582F0FF0212F5803FC1
:103DB000C8BF704700F1C040D8BF00F00040704756
:103DC00000F5000C5FEA4C0C48BF7047B0F1C040F2
:103DD00000F073B890EA010F0CEAD11348BF42F427
:103DE0008072624538BF634504D280EA010000F06A
:103DF0000040704710B500F01AF800BF8900013E7E
:103E000000F007B800F009B85FEA410C5FEA1C6CEB
:103E100008D080EA010000F050B85FEA400C5FEA89
:103E20001C6CF6D14FF00040A0F5800070470EF1F9
:103E3000020E2EF0030E5EF8044B244204D44FEA27
:103E40004102B2F17F4F11D84FEA4003B3F17F4FE7
:103E50000CD80ED14FEAD07CB2F17F4F0CEB4C0C5A
:103E60000CF1020C08BF4CEBD17C04E04FF0080CC5
:103E700001E04FEAD17C0CEB4C0324FA03F404F08C
:103E80000704B4F1040C06D20EEB840CBDE810401C
:103E90004CF0010C6047DFE80CF0070802024FF01D
:103EA0000040A0F5800010BD0846420018BFD2F1C6
:103EB000807288BF00F0004010BDFF2141EAD05061
:103EC000C005704751EA000C00F113801CF5000F8B
:103ED00058BFBCF5000F01D48142704707D711F5D8
:103EE000000F58BF10F5000F15D48142704789426A
:103EF00070471CF5000F04D5BCF5000FF7D58842BC
:103F000070474FF0807C1CEB410F38BF1CEB400F1B
:103F100001D28842704780EA010081EA000180EA0C
:103F20000100FFF7F8BE000090EA010F48BF81F0E2
:103F300000413FF536AD421A04D882F00042A0EBB2
:103F4000020011444FEAD0524FF07F4C1CEA410F5F
:103F5000A2EBD15318BF9CEA026F4AD04FF0004C3D
:103F60004CEA00204CEA012121FA03FCB0EB0C0CD6
:103F70000FD412F0FE0F36D05FEA4C001DD50012B0
:103F800040EBC25038BF70471CF03F0F18BF70475E
:103F90000BE0A2F101025FEA1C2040EBC25038BFE7
:103FA00070471CF07F0F18BF7047C3F12003994082
:103FB00014BF401E20F00100704780084FEA122312
:103FC00008BF7047B0FA80FCA2EB0C02CCF1280CC1
:103FD00060FA0CF093EA122F04BF00EBC250704756
:103FE0004FEAC3707047130A5FEADC1008BF7047DE
:103FF000F6E79CEA026F04D010EA5C0F08BF0020CD
:10400000704710B5FFF713FF40DFF63E81F0004028
:1040100070470000344000080000002074020000D7
:10402000280100087C40000874020020EC06000013
:10403000840100081184A24A04A8090102030406AD
:10404000070809106914053002040608028F1E02D1
:10405000AE0A071848429A99193F33444209351E5F
:10406000091C5A113D3FCDCC4C04011832B407262F
:0C40700070FEFFFF9001CAA030000000AD
:04000005080000ED02
:00000001FF
